:020000040800F2
:10000000E0940120A1020008DD410008353E00080F
:10001000D941000845080008D54B00080000000041
:10002000000000000000000000000000E5410008A2
:100030000D09000800000000E1410008E941000846
:10004000BB020008BB020008BB020008BB0200089C
:10005000BB020008BB020008BB020008BB0200088C
:10006000BB020008BB020008BB020008BB0200087C
:10007000BB020008BB020008BB020008BB0200086C
:10008000BB020008BB020008BB020008BB0200085C
:10009000BB020008BB020008BB020008BB0200084C
:1000A000BB020008BB020008BB020008BB0200083C
:1000B000BB020008BB020008BB020008BB0200082C
:1000C000BB020008BB020008BB020008BB0200081C
:1000D000BB020008BB020008BB020008BB0200080C
:1000E00011090008BB020008BB020008BB0200089F
:1000F000BB020008BB020008BB020008BB020008EC
:10010000BB020008BB020008BB020008BB020008DB
:10011000BB020008BB020008B5420008BB02000891
:10012000BB020008F1080008BB020008BB0200087F
:10013000BB0200080000000000000000BB02000835
:10014000BB020008BB020008BB020008BB0200089B
:10015000BB020008BB020008BB020008BB0200088B
:10016000BB020008BB020008BB020008BB0200087B
:10017000BB020008BB020008E50800080000000000
:1001800000000000BB0200080000000000000000AA
:10019000BB0200080000000000000000BB020008D5
:1001A000000000000000000000000000BB0200088A
:1001B000BB020008BB020008BB020008BB0200082B
:1001C000BB02000800F002F800F05AF814A696E806
:1001D000000CB244B344DA4501D100F051F8BAE85A
:1001E0000F000FA696E83000A5EB040504EB060708
:1001F000AAEB0704A7F101074FEA15154FEA3414DB
:10020000A4F10104AC4201D300F03AF813F0010F5D
:1002100018BFFB1A43F0010300F001F8DBE71847B1
:10022000604F0000804F0000103A24BF78C878C1AA
:10023000FAD8520724BF30C830C144BF04680C60EC
:1002400070470000704700000023002400250026AE
:10025000103A28BF78C1FBD8520728BF30C148BF29
:100260000B607047642900F0EF80782900F0288146
:10027000002070471FB504F0BEFE1FBD10B510BDB5
:1002800000F0A5FA1146FFF7F5FF04F0A5FC00F019
:10029000C3FA03B4FFF7F2FF03BC00F0CBFA00008F
:1002A0000948804709480047FEE7FEE7FEE7FEE70A
:1002B000FEE7FEE7FEE7FEE7FEE7FEE70448054946
:1002C000054A064B70470000A1420008C50100081E
:1002D000E08E0120E0940120E0900120E0900120D8
:1002E00053EA020C00F069802DE9F04B4FF0000654
:1002F000002B1FBFB3FA83F503FA05F424FA05F6C1
:100300005E4012BF1643B2FA82F502FA05F4C5F157
:1003100020051EBF22FA05FC44EA0C04203556EAEB
:10032000044C4FEA144418BF641C4FF000084FF00F
:100330000009904271EB030C39D3002919BFB1FABF
:1003400081F701FA07F6B0FA80F700FA07F6C7F16D
:1003500020071EBF20FA07FC46EA0C062037B6FB32
:10036000F4FCA7EB0507103F07F01F0BCBF12006AD
:100370002CFA06F60CFA0BFB44BFB3460026202FDE
:10038000A4BF5E464FF0000B5BEA060C08BF4FF0BF
:10039000010B19EB0B0948EB0608ABFB027C06FBD3
:1003A00002CC0BFB03CCC01B71EB0C01C1E70B466D
:1003B000024641464846BDE8F08B13B5084318BFD6
:1003C0004FF0FF300146AFF30080BDE81C4070479E
:1003D0000FB41CB5074B06AA7B44694600900598EC
:1003E00000F0DDF90020694600F0ECF91CBC5DF876
:1003F00014FB0000E903000070B50446856900683D
:10040000C10601D5302600E02026C00707D070BD08
:10041000D4E9012130469047206A401C20626D1EBD
:10042000F6D570BD70B5044685690078C00707D160
:1004300070BDD4E9012120209047206A401C206231
:100440006D1EF6D570BD00002DE9F0410646002472
:1004500010687529314616A510D0AFF3008000282A
:1004600002DA404213A507E031688A0701D512A5D8
:1004700002E0490704D511A5012401E0AFF3008093
:1004800000210A2206F1240709E0B0FBF2FCB0FBD0
:10049000F2F302FB1C00303078541846491C002847
:1004A000F3D123462A463046BDE8F04100F019B9A1
:1004B000000000002D0000002B00000020000000C4
:1004C00070B504460D4621461068AFF300802188C0
:1004D000090502D50F4A7A4402E00E4A7A440E32E8
:1004E000002104F1240305E000F00F060009965DE9
:1004F0005E54491C0028F7D120780023000704D55A
:10050000702D02D009B1022311322046BDE870409F
:1005100000F0E7B8364B00002DE9F05F894604464D
:100520004FF0000ADFF824B1FB44C0F820A02046B9
:10053000E168884700287DD0252806D0D4E901212C
:100540009047206A401C2062F1E700255F46204664
:10055000E16888472028064607DB312E05D2B81906
:1005600010F8200C08B10543F1E7A80701D525F0E4
:100570000405C4F81CA00027C4F818A02A2E09D02E
:10058000304604F031FD38B304EB8708303EC8F83C
:10059000186019E059F8041B204604EB87029161AA
:1005A000E1688847012F064618D1E069002820DA63
:1005B00025F020051DE0D8F8180000EB800006EBC0
:1005C00040003038C8F818002046E16888470646E1
:1005D00004F00AFD0028EED1012F0AD02E2E08D1FA
:1005E0002046E16888477F1C0646022F45F020051B
:1005F000C4DBA069002803DA404245F00105A06190
:10060000E80701D025F01005A6B1A6F14100192890
:1006100002D8203645F400654A463146204625601A
:100620004D46FFF71FFE60B1012807D0ED1D25F0F4
:10063000070000E007E000F1080978E705F1040988
:1006400075E730467AE7206ABDE8F09F0C4B000062
:1006500010B5431C02E010F8011B71B18107FAD1FB
:100660004FF0013202C88C1A8C4314EAC211F9D03F
:10067000C01A0A0603D0C01E10BDC01A10BD0A045D
:1006800001D0801E10BD0902FCD0401E10BD4FF0ED
:10069000000200B5134694469646203922BFA0E8D2
:1006A0000C50A0E80C50B1F12001BFF4F7AF0907DE
:1006B00028BFA0E80C5048BF0CC05DF804EB8900CF
:1006C00028BF40F8042B08BF704748BF20F8022B12
:1006D00011F0804F18BF00F8012B7047704770472A
:1006E00070472DE9F0470D4699469246044600F1C1
:1006F00024080168880604D5E06921F01001216012
:1007000000E00120A84201DD471B00E00027A169AD
:100710007A1902EB0900081AA0612078C00602D4F9
:100720002046FFF769FE002608E0D4E901211AF807
:1007300006009047206A401C761C20624E45F4DB80
:100740002078C0060AD52046FFF756FE06E0D4E919
:10075000012130209047206A401C2062381EA7F1FA
:100760000107F4DC07E0D4E9012118F805009047FF
:10077000206A401C2062281EA5F10105F3DC2046FA
:10078000FFF750FE2078000602D50220BDE8F08772
:100790000120FBE701694A1C02610878704700B537
:1007A0008FB0CDE901310021059105497944CDE9AA
:1007B000031011466846FFF7AFFE0FB000BD000002
:1007C000E5FFFFFF0A6802F8010B0A6070477546F3
:1007D00000F02CF8AE4605006946534620F00700AD
:1007E000854618B020B5FFF769FDBDE820404FF001
:1007F00000064FF000074FF000084FF0000BAC462A
:10080000ACE8C009ACE8C009ACE8C009ACE8C00974
:1008100021F007018D46704710B50446AFF3008004
:100820002046BDE81040FFF734BD00000048704787
:100830001000002001491820ABBEFEE72600020090
:1008400070470000FEE70000806B816C496D022953
:100850001CBF012180F8351000F064B810B5846B1E
:10086000A36BA06C01680A6863B1A36BDB0717D1A7
:1008700012F4002214D0C968E26B01EBC20100221D
:1008800016E000BF100319D40868000318D4E06B09
:10089000D4E9102303EB80000861A26310E000BFDD
:1008A0000A6812030CD40969E26B01EBC201012250
:1008B00000F0A0FAA06B0138A06301E0606CC86092
:1008C000A06B216C884218BF10BD2068C16841F040
:1008D0000101C1600068800744BF012084F8350031
:1008E00010BD000040F27400C2F2000000F01EB81B
:1008F00080B540F2C400C2F2000000F001FD40F2F9
:100900007000C2F200000121017080BD704700003C
:100910004FF4005000F0F0BEEFF3108072B600BF4D
:10092000FEE70000704700007047000070B5044605
:10093000006840F649060569C0F6000669071FD43D
:10094000A8072BD4E80639D4280705D52068082144
:100950004161204600F04CFAE80708BF70BD2168ED
:100960000868800703D5C86820F01E00C860C86802
:1009700020F001022046CA60BDE87040FFF7D4BFF6
:1009800004214161E06C40F00200E06484F835101D
:10099000A06C066500F0A2FCA807D3D5216802224E
:1009A000A06C4A61E16C41F00101E164042184F82A
:1009B0003510066500F092FCE806C5D520681021C8
:1009C0004161204600F054F82807BFD4C4E7000076
:1009D000002804BF012070472DE9F04F81B090F846
:1009E000351049B9002180F83410044600F042F86F
:1009F000204600F03FF82046022180F8351090E8AC
:100A000002514FF207040B68CFF6E07423400B60ED
:100A1000D0E90443856943EA0E032343D0E908671C
:100A200043EA0C0300F1280A2B439AE804063343F7
:100A30003B431A43D1F800B042EA090242EA0A02F3
:100A400042EA0B0242EA08020A60B8F1100F04BF42
:100A5000C2698A61CA6842F01E02CA60002101228E
:100A6000C16480F8352001B0BDE8F04F08467047FA
:100A7000704700002DE9F04387B0804600680021F0
:100A8000C5F2050100278842CDE90577CDE9037756
:100A9000029703D007B0BDE8F08300BF43F63000F3
:100AA0000197C4F202004168002541F00101416054
:100AB0004168C4F2020501F0010101910199019719
:100AC000016802AE41F01001016001684FF00209B7
:100AD00001F0100101910199019701680D2441F085
:100AE00001010160016801F0010101910199019783
:100AF000016841F004010160016801F00401019105
:100B000001990197016841F008010160016801F055
:100B10000801019101990197016841F040010160CC
:100B20000068314600F0400001900198702002906A
:100B300005F58050CDE903970597069400F0E8FD90
:100B40005020CDE9020928463146CDE904770694C4
:100B500000F0DEFD4FF47070CDE9020905F500608C
:100B60003146CDE90477069400F0D2FD0820CDE9A6
:100B7000020905F540603146CDE90477069400F09E
:100B8000C7FD4FF40070CDE9020905F5C0503146AC
:100B9000CDE90477069400F0BBFD40F2C40546F2AF
:100BA0002840C2F20005C4F202004FF480534FF413
:100BB00080464FF000714FF4806285E88300C5E9FC
:100BC00005364FF4003005F120034FF48074C5E979
:100BD00003720421032287C32846EC612F6300F0CF
:100BE00071FC002818BFFFF797FE4E20002100225D
:100BF000C8F84850C5F8388001F0EAFC4E2001F0F2
:100C0000D5FC07B0BDE8F08390F83410012904BF8B
:100C10000220704790F83510052907D1022180F88D
:100C2000351001680A6842F001020A60002180F86C
:100C3000341000207047000070B582B0044690F870
:100C4000340001284FF0020078D04FF0010E84F8F4
:100C500034E084F83500D4F800C0A06CDCF8005013
:100C6000002645F48045CCF80050DCF80050B6EB87
:100C7000134F25F00205CCF80050DCF8005041EA93
:100C80000501CCF8001040F65D0140F64905C0F6BC
:100C90000001C0F60005C163C0E91356A6632664CF
:100CA00004D10CF1280100F0BFFC3FE04164C4F81E
:100CB00038E0E3636264E16BB1F5803F28D3002143
:100CC000E36B5B08E363A36B5B00A363E36BB3F5C8
:100CD000803F1DD3E36B5B08E363A36B5B00A363FF
:100CE000E36BB3F5803F13D3E36B5B08E363A36B64
:100CF0005B00A363E36BB3F5803F09D3E36B5B0851
:100D0000E363A36B5B00A363E36BB1EB134FD7D13A
:100D1000A16B0239A163A16B2164E16BE66B02EB6D
:100D200081030CF12801009600F06EF8206801683C
:100D300041F001010160002084F8340002B070BD70
:100D400081B040F20801C2F20001096842F2934208
:100D50004908C9F24922A1FB02129108009190F8BA
:100D60003410012904D10221084601B0704700BFA8
:100D700090F835104FF0000C02294FF0000124D1FB
:100D8000052180F8351001680B6823F001030B6022
:100D9000009B5A1E0092EBB10A68D20714D0009A49
:100DA000531E0093B2B10A68D2070DD0009A531EA9
:100DB00000937AB10A68D20706D0009A531E0093B6
:100DC00042B10A68D207E3D1002180F834C0084656
:100DD00001B07047C16C41F02001C164012180F86D
:100DE0003510032180F834C0084601B07047000078
:100DF00070470000D0F800C010230020002A08BF70
:100E00000C234CF80310704770B58568802D05D110
:100E10004FF480714165012070BD00BFC46B002C90
:100E200050D0446C002C4DD0C46C002C4AD090F8AB
:100E30003440012C4DD0012480F8344090F83540E6
:100E4000012C43D1022480F8354000244465D0F8B9
:100E500000C0049CDCF8006046F20C4E46F480268C
:100E6000C4F2020ECCF80060CCF810300B46CCF87F
:100E70000440402D04BF13460A460EF14C018C4538
:100E8000CCF80830CCF80C2026D946F28841C4F2C0
:100E900002018C4564D046F27041C4F202018C45D7
:100EA00072D12021CEF800101021CEF800100821B8
:100EB000CEF800100421CEF800100121CEF8001069
:100EC000EEE100BF40214165012070BD002180F8A6
:100ED0003410022070BD00BF46F20801C4F20201C6
:100EE00001F1B002944519D946F21043C4F202034D
:100EF00046F228429C45C4F2020200F087809445E5
:100F000000F0808046F24046C4F20206B4450CBFB1
:100F10004FF400144FF0006479E000BF01F150027B
:100F200046F2100E46F270039445C4F2020EC4F26B
:100F3000020353D99C4500F0CF8046F28804C4F2E6
:100F40000204A44500F0C08046F2A004C4F20204EA
:100F5000A4450CBF4FF400144FF000644C60C1E096
:100F60004FF40061CEF800104FF48061CEF800100D
:100F70004FF40071CEF800104FF48071CEF80010DD
:100F80004021CEF800108BE10EF194014FF0006289
:100F90008C4508BF4FF40012CEF800204FF080625D
:100FA00008BF4FF48012CEF800204FF000728C453D
:100FB00008BF4FF40022CEF800204FF0807208BF27
:100FC0004FF48022CEF800204FF480028C4508BFF9
:100FD0004FF48032CEF8002062E100BFF44500F00B
:100FE0007F8046F22804C4F20204A44570D046F281
:100FF0004004C4F20204A4450CBF4FF400144FF0A7
:1010000000646EE04FF4006401E000BF20249C45C2
:10101000C1F8004410D094450AD046F24046C4F2CC
:101020000206B4450CBF4FF480144FF0806404E016
:101030004FF4806401E000BF10249C45C1F80044D7
:1010400010D094450AD046F24046C4F20206B44598
:101050000CBF4FF400244FF0007404E04FF4007410
:1010600001E000BF08249C45C1F8004410D094451D
:101070000AD046F24046C4F20206B4450CBF4FF413
:1010800080244FF0807404E04FF4807401E000BFCE
:1010900004249C45C1F8004412D094450CD046F27B
:1010A0004042C4F2020294450CBF4FF480324FF428
:1010B0008002C1F80024F3E04022C1F80024EFE0F0
:1010C0000122C1F80024EBE04FF400644C6009E019
:1010D0004FF4006405E000BF20244C6002E000BF34
:1010E00020240C60944513D99C452DD046F28804E9
:1010F000C4F20204A4451FD046F2A004C4F20204C4
:10110000A4450CBF4FF480144FF080644C6021E084
:10111000F4451DD046F22804C4F20204A4450FD0C1
:1011200046F24004C4F20204A4450CBF4FF48014FC
:101130004FF080640DE000BF4FF480644C6009E024
:101140004FF4806405E000BF10244C6002E000BF53
:1011500010240C60944513D99C452DD046F2880488
:10116000C4F20204A4451FD046F2A004C4F2020453
:10117000A4450CBF4FF400244FF000744C6021E0F4
:10118000F4451DD046F22804C4F20204A4450FD051
:1011900046F24004C4F20204A4450CBF4FF40024FC
:1011A0004FF000740DE000BF4FF400744C6009E094
:1011B0004FF4007405E000BF08244C6002E000BF5B
:1011C00008240C60944513D99C452DD046F2880420
:1011D000C4F20204A4451FD046F2A004C4F20204E3
:1011E000A4450CBF4FF480244FF080744C6021E084
:1011F000F4451DD046F22804C4F20204A4450FD0E1
:1012000046F24004C4F20204A4450CBF4FF480240B
:101210004FF080740DE000BF4FF480744C6009E023
:101220004FF4807405E000BF04244C6002E000BF6E
:1012300004240C60944513D99C452BD046F28802B7
:10124000C4F2020294451FD046F2A002C4F2020288
:1012500094450CBF4FF480324FF480024A601FE087
:10126000F4451BD046F22802C4F2020294450FD086
:1012700046F24002C4F2020294450CBF4FF48032A1
:101280004FF480020BE000BF40224A6008E000BF3C
:10129000402204E001224A6002E000BF01220A600D
:1012A000DCF8001041F01601CCF80010DCF8141046
:1012B00041F08001CCF81410016C09B9806C28B1A0
:1012C000DCF8000040F00800CCF80000DCF800007A
:1012D00040F00100CCF80000002070BD90F83510FF
:1012E000022909D1052180F835100068016821F034
:1012F0000101016000207047802141650120704795
:10130000F0B581B00021009140F20801C2F2000165
:101310000B68D0E9166148F2B51537680822C1F6A6
:101320004E358A403A42A3FB05350CD003681C6851
:10133000640708D51C6824F004041C60B260426D88
:1013400042F00102426501228A403A4208D0036815
:101350005B691B0604D5B260426D42F00202426531
:1013600004228A403A4208D003681B689B0704D5D0
:10137000B260426D42F00402426510228A403A4255
:1013800019D001680B681B0715D5B2600B680A6895
:101390005B0309D4D20509D40A6822F008020A6066
:1013A000016C29B907E000BF110341D4016C11B1F0
:1013B000044688472046C26D202101FA02F33B42D1
:1013C00043D001680F68FF063FD5B36090F83570D1
:1013D0000B68052F1CD123F016030B604B6923F01B
:1013E00080034B61036C0BB9836C1BB10B6823F05A
:1013F00008030B603F219140B160012180F8351056
:10140000016D0022002980F8342054D158E000BF3B
:101410000A685B0310D4D20512D40A6822F01002C5
:101420000A60012180F83510002180F8341007E0AF
:10143000816C0029BCD1BEE7110301D4416C00E0EE
:10144000C16B11B1044688472046416DC1B3416D5F
:10145000C9072ED0052180F835100168AA0A0B684B
:1014600023F001030B60009B0133934200931AD8D1
:101470000B68DB0717D0009B01339342009312D80F
:101480000B68DB070FD0009B0133934200930AD80F
:101490000B68DB0707D0009B01339342009302D80F
:1014A0000B68DB07DFD1012180F83510002180F8BF
:1014B0003410C16C21B101B0BDE8F040084700BF55
:1014C00001B0F0BD2DE9F041044600F005FAECB1A1
:1014D0000546022084F835000020216884F8340095
:1014E000086820F00100086021680868C00711D072
:1014F00000F0F2F9401B0528F6D90325202303202C
:10150000636584F83550BDE8F08100BF0120BDE877
:10151000F08100BF086848F23F02CFF21002D4E920
:10152000013500EA020C04F10C0898E8C10143EA15
:101530000C032B431843D4E9072E304338431043A0
:10154000626A40EA0E00042A40EA08031CD1206BBC
:10155000D4E90A2E40EA0E00184308604869BEF13B
:10156000000F20F0030040EA020040F0040C11D00C
:10157000B8F5005F36D0B8F1000F45D1022A46D049
:10158000012A3BD032B942E00B60486920F00700E5
:1015900040EA020C01F0F8004AF6AB221038CAF615
:1015A000AA22A0FB02231A0945F25513C1F814C060
:1015B000C0F600039A5C40F2FF335F284FF03F0013
:1015C00021EA030100FA02F088BF0431C4E91612CF
:1015D0008860002301250020636584F83550BDE84C
:1015E000F08100BF032AD5D8012540230120DFE880
:1015F00002F0030E030500BF82E700BFAEF1C0702A
:10160000B0FA80F0400904E0032A04D3C2D1CEF33B
:1016100000600028BED0012540230120636584F8C6
:101620003550BDE8F081000090F834C0BCF1010FE6
:1016300004BF0220704770B54FF0010C80F834C031
:10164000D0F858E090F835C0BCF1010F38D14FF018
:10165000020C80F835C04FF0000CC0F854C0D0F830
:1016600000C08468056CC06DDCF80060402C26F476
:101670008026CCF80060CCF804300B4604BF13463B
:101680000A463F2101FA00F0CCF80830CCF80C20D3
:10169000CEF80800DCF8000040F01600CCF800009E
:1016A0002DB1DCF8000040F00800CCF80000DCF8B8
:1016B000000040F00100CCF80000002070BD00BF29
:1016C000002180F83410022070BD0000B0B504463F
:1016D00000F002F9054640F20000C2F20000007876
:1016E000611C18BF044400BF00F0F6F8401BA04284
:1016F000FAD3B0BD7047000043F61441C4F20101B3
:101700000A68024214BF08607047FFF7F3BF000089
:101710002DE9F04F83B000F1200200F13E4741F681
:101720000005009207F1FF77C4F2020507224FEA95
:10173000B726A84208BF062200254FF000084FF048
:101740000009062E38BF4FEAB72201920AE000BF17
:1017500009F1010908F10208B9F1100F05F10405BA
:1017600000F0A2800F68012202FA09FE17EA0E0AB1
:10177000EED0D1F804C003220CF003077E1E02FA5B
:1017800008F4012E6FEA040B12D88468CE6804EACC
:101790000B0406FA08F634438460446824EA0E0613
:1017A000CCF3001404FA09F42643466004E000BFB9
:1017B000032F01D103271EE0C6688C6806EA0B06DA
:1017C00004FA08F42643022FC66014D16FF0030216
:1017D000009E02EA590756F807C005F01C040F22C4
:1017E0000B69A2402CEA0202A3401A43F251D1F83D
:1017F00004C00CF00307026807FA08F302EA0B02C0
:101800001A431CF4403F0260A2D0002243F6440376
:101810000292C4F202031A6843F6004442F4804282
:101820001A601A68C4F2010402F480420292029A19
:1018300029F003024FF6084C2244CFF6FF7C52F801
:101840000C3005F00C070F26BE40B343019E06FA8C
:1018500007F73B4342F80C30A2684B6842EA0A079C
:1018600043F60C4CDE0258BF22EA0A07A760C4F216
:10187000010CDCF800209E0242EA0A0758BF22EA67
:101880000A07CCF8007062689E0342EA0A0758BF54
:1018900022EA0A0767602268DB0342EA0A0758BFA8
:1018A00022EA0A07276053E703B0BDE8F08F000083
:1018B0000069084018BF012070470000426902EA31
:1018C0000103914341EA034181617047002A08BF47
:1018D000090481617047000048F6D860C2F2010037
:1018E00000687047002804BF01207047F0B581B040
:1018F000044690F83D0028B9002084F83C002046BA
:1019000000F0B0FD242084F83D002068016821F03B
:1019100001010160016841F400410160016821F4A6
:101920000041016001F0B0FA636848F2A16CC0F2B6
:10193000010C40F60011C0F23D0163453CBF48F286
:101940008041C0F21E01884202D2012001B0F0BDE8
:101950004DF68361C4F21B31A0FB01122168970C84
:10196000D1F804E04FF496762EF03F0545EA924513
:101970004D60774348F638160D6AC0F24106A7FB62
:10198000067625F03F07634538BF960C721C3A4334
:101990000A62CA6948F2A0664CF6FF77C0F20106F7
:1019A000B34222EA07020BD801385B00B0FBF3F028
:1019B00001306FF31F30042898BF04201BE000BFE4
:1019C000A768013857B119277B43B0FBF3F001300A
:1019D0006FF31F3070B100F5804007E003EB430365
:1019E000B0FBF3F001306FF31F3018B100F5004089
:1019F00001E000BF01201043C8610868D4E9072353
:101A000020F0C000104318430860886848F2FF3295
:101A100004F10C0790438CCF18431043A6698860EB
:101A2000C86820F0FF0038433043C860086840F0C1
:101A30000100086000202021206484F83D1020630C
:101A400084F83E0001B0F0BD2DE9F04182B01F46A0
:101A5000164688460446FFF73FFF94F83D102029BC
:101A60001ED1054620688169890715D5FFF734FF27
:101A7000401B1928F6D900202021206384F83D104E
:101A800084F83E00216C41F02001216484F83C0080
:101A9000022002B0BDE8F08194F83C10012903D186
:101AA000022002B0BDE8F081012184F83C100168F9
:101AB000C90703D1016841F001010160016821F407
:101AC00000610160222184F83D10102184F83E104D
:101AD0000021216466626785618D21850021CFF632
:101AE000FF71E162E16A026811F5803F42F48062B1
:101AF000026018BF012919D1016841F480710160A9
:101B00004169089EC90724D1711C18D0002E00F02D
:101B1000C58000BFFFF7E0FE401BB04200F2C0806E
:101B200020684169C907F5D013E000BF0829E3D058
:101B3000216B1129E0D0E3E74169C90709D1416967
:101B4000C90706D14169C90704BF41695FEAC1718C
:101B5000F2D02169B1F5804F08D148F00101C9B236
:101B600001614169890740F1C68001E1062101EA6E
:101B7000D81707F1F00101614169090732D44169C1
:101B8000721C14D0490500F1E980002E00F010828B
:101B9000FFF7A2FE401BB04200F20C8220684169B0
:101BA00009071FD441694905F2D5D7E041694905C4
:101BB00000F1D4804169090714D44169490500F155
:101BC000CD80416909070DD44169490500F1C680FE
:101BD0004169090706D44169490500F1BF8041699F
:101BE0000907E3D55FFA88F101614169890739D4B2
:101BF0004169721C4FEA415114D0002900F1AE80B6
:101C0000002E00F0D581FFF767FE401BB04200F2C6
:101C1000D18120684169890724D441694905F2D5F9
:101C20009CE000BF002900F199804169890719D41F
:101C30004169490500F192804169890712D44169DF
:101C4000490500F18B80416989070BD44169490539
:101C500000F184804169890704D441694905E4D5CC
:101C60007CE000BF002101914169019181690191EE
:101C70000199016841F4807101604169C90734D15B
:101C8000711C28D056B1FFF727FE401BB04207D881
:101C900020684169C907F6D027E000BFFFF71CFEA6
:101CA00000202021206384F83D1084F83E00216C40
:101CB00041F020012164216884F83C000868C005D7
:101CC00044BF4FF400702064012002B0BDE8F081F1
:101CD0004169C90709D14169C90706D14169C907E5
:101CE00004BF41695FEAC171F2D047F0F1010161BF
:101CF000416989073CD44169721C4FEA415113D0B4
:101D000000292BD4002E00F05381FFF7E5FD401B86
:101D1000B04200F24F8120684169890728D44169A7
:101D20004905F2D51AE000BF002917D44169890797
:101D30001ED44169490511D44169890718D4416904
:101D400049050BD44169890712D44169490505D475
:101D5000416989070CD441694905E7D5016841F417
:101D6000007101606FF480614161042023E100BFD4
:101D7000218DD9B1022911D001292DD1026822F477
:101D8000806202600022019242690192826901929E
:101D9000019A026842F40072026028E0026822F4AC
:101DA00080620260026842F4006218E00021019142
:101DB00041690191816901910199016841F40071C2
:101DC0000160202084F83D00002084F83E0084F863
:101DD0003C0002B0BDE8F081026842F4806202601B
:101DE000002201924269019280690190019888B2B3
:101DF000032817D802283FD0012851D1002E00F027
:101E000099802068014651F8142F520600F19680FF
:101E10000868C00600F1F280FFF75EFD401BB0428B
:101E2000EFD9E0E086B100BF2068014651F8142FD9
:101E300052060ED40868C00600F1E080FFF74CFDA2
:101E4000401BB042F0D9CEE020684169490640F11C
:101E5000C3800069616A0870606A218D01300139B0
:101E6000606221852268638D013B638553695B074E
:101E700070D51169017064E020684169490745D453
:101E8000711C6BD0002E00F0CD80FFF725FD401BAC
:101E9000B04200F2C980206841694907F5D535E0B4
:101EA0002068416949070ED4711C65D0002E00F0EE
:101EB000B980FFF711FD401BB04200F2B5802068E9
:101EC00041694907F5D5016821F480610160006925
:101ED000616A0870606A218D013001396062218574
:101EE0002068618D01396185416949070ED4711CF3
:101EF00050D0002E00F09680FFF7EEFC401BB04261
:101F000000F29280206841694907F5D5016841F4E3
:101F1000007101600069616A0870606A2268411C92
:101F20006162218D01392185618D013961851169D8
:101F3000417006E02068416949064DD50069616A33
:101F40000870606A218D0130013960622185608DE1
:101F50000138608508047FF44AAF32E741694907D8
:101F6000D4D4416949075CBF41695FEA4171CDD46E
:101F700041694907F2D5C9E741694907A3D44169D5
:101F800049075CBF41695FEA41719CD441694907D7
:101F9000F2D598E741694907B8D4416949075CBF60
:101FA00041695FEA4171B1D441694907F2D5ADE7B2
:101FB000FFF792FC202000212022216384F83D209D
:101FC00084F83E10226C1043206484F83C100120F9
:101FD00002B0BDE8F08100BF50F8141FC9060146E9
:101FE0000CD4FFF779FC00202021206384F83D10F9
:101FF00084F83E00206C40F020000AE06FF01000F2
:10200000086000202021206384F83D1084F83E0001
:10201000206C2064002084F83C00012002B0BDE860
:10202000F08100BFFFF758FC00202021206384F8D6
:102030003D1084F83E00216C41F02001216484F8B9
:102040003C00012002B0BDE8F08100002DE9F04322
:1020500081B01F46164688460446FFF73DFC94F8BB
:102060003D1020291ED1054621688869800715D5B5
:10207000FFF732FC401B1928F6D9002020212063ED
:1020800084F83D1084F83E00216C41F02001216469
:1020900084F83C00022001B0BDE8F08394F83C00D5
:1020A000012803D1022001B0BDE8F083012084F8AB
:1020B0003C000868C00703D1086840F001000860D0
:1020C000086820F400600860212084F83D0010209A
:1020D00084F83E000020206466626785608D20855C
:1020E0000020CFF6FF70E062E06A10F5803F18BF75
:1020F000012819D1086840F4807008604869DDF84B
:102100002090C00723D119F1010016D0B9F1000FBA
:1021100000F07E80FFF7E0FB401B48457AD821683D
:102120004869C007F6D012E00828E3D0206B1228D7
:10213000E0D0E3E74869C00709D14869C00706D184
:102140004869C00704BF48695FEAC070F2D02069DF
:10215000B0F5804F02D1FE2039E000BF062000EA32
:10216000D810F0300861486900072FD4486919F188
:10217000010214D040057DD4B9F1000F00F0368182
:10218000FFF7AAFB401B484500F2328121684869ED
:1021900000071BD448694005F2D56BE0486940054B
:1021A00068D44869000711D44869400562D4486979
:1021B00000070BD4486940055CD44869000705D482
:1021C0004869400556D448690007E7D5FF2000EA72
:1021D000080008614869800756D4486919F101026E
:1021E0004FEA40502CD0002844D4B9F1000F00F041
:1021F000FD80FFF771FB401B484500F2F980216824
:102200004869800740D448694005F2D532E000BFF4
:10221000FFF762FB00202021206384F83D1084F842
:102220003E00216C41F020012164216884F83C00CB
:102230000868C00544BF4FF4007020640EE100BF81
:10224000002817D4486980071ED44869400511D476
:102250004869800718D4486940050BD4486980074D
:1022600012D44869400505D4486980070CD44869F0
:102270004005E7D5086840F4007008606FF480609E
:1022800048610420B5E000BF002000904A69009238
:102290008A690092009A228D002A00F0998009F143
:1022A00001080A4652F8143F1B0637D4B8F1000F54
:1022B00018D0B9F1000F00F0AD8000BF10684005E4
:1022C00000F1B080FFF708FB401B484500F2A780F3
:1022D00021680A4652F8140F00064FF00000EDD5B1
:1022E0001CE000BF13685B0500F19C8013681B06AF
:1022F00014D413685B0500F1958013681B060DD498
:1023000013685B0500F18E8013681B0606D4136802
:102310005B0500F1878013681B06E3D5676A3A46C0
:1023200012F8013B0B616262628D013A6285268D73
:102330000A46A6F1010CA4F828C052F8143F5B0726
:102340000DD55FEA0C430AD07B78A6F1020C0B6135
:10235000BB1C6362638D013B6385A4F828C01368CE
:102360005B0731D4B8F1000F16D0B9F1000F51D08E
:102370001068400556D4FFF7AFFA401B48454ED8C9
:1023800021680A4652F8140F40074FF00000EFD5BD
:10239000B4F828C018E000BF13685B0542D4136886
:1023A0005B0711D413685B053CD413685B070BD43F
:1023B00013685B0536D413685B0705D413685B05A7
:1023C00030D413685B07E7D55FEA0C427FF469AF4E
:1023D0000A6842F400720A60202184F83D1084F8F3
:1023E0003E0084F83C0001B0BDE8F083FFF774FACA
:1023F000202000212022216384F83D2084F83E1013
:10240000226C1043206484F83C10012001B0BDE828
:10241000F08300BF1068400504D4FFF75DFA202068
:1024200004E000BF6FF480601060042000212022CF
:10243000216384F83D2084F83E10226C1043206410
:1024400084F83C10206C042808D12068016841F40D
:1024500000710160012001B0BDE8F083012001B0EE
:10246000BDE8F083B0B586B045F600010068C4F25F
:102470000001002488420594CDE9034402940194AC
:1024800002D006B0B0BD00BF43F630050094C4F2E0
:1024900002052868122240F020002860286800F019
:1024A0002000009000980320029201220190CDE9C3
:1024B00003200420059001F5DE3001A9FFF728F97B
:1024C0000094286940F480002861286900F48000A5
:1024D0000090009806B0B0BD40F2000048F6D86108
:1024E000C2F20000C2F2010100780A6810440860DC
:1024F0007047000080B543F60040C4F20200016856
:1025000041F400710160016841F48061016001687B
:1025100041F480710160032000F086F8002000F093
:1025200005F800F027F8002080BD000070B540F2EB
:102530000006C2F2000640F208013278C2F2000141
:102540004FF47A730968B3FBF2F20446B1FBF2F17F
:10255000084600F001FF0F2C4FF0010508D838B9EC
:102560004FF0FF3021460022002500F031F8746062
:10257000284670BD82B0002043F640010190C4F2AD
:1025800002014A6842F480424A604A6802F480428A
:102590000192019A0090086840F080500860086835
:1025A00000F080500090009802B07047002848BFAB
:1025B000704700F01F01012202FA01F11C2202EA19
:1025C000D0004EF20012CEF200028150704700009F
:1025D00010B54EF60C5CCEF2000CDCF80030C3F304
:1025E000022E8EF00704042C28BF0424BEF103033E
:1025F0004FF0FF3E0EFA04F438BF0023A143994088
:102600000EFA03F39A43114300F00F0200F1604306
:102610000901043A03F564436244002848BF02F10B
:102620000C03197010BD00004EF60C51CEF20001E3
:102630000A684FF6FF031A4060F30A2242F08060F6
:1026400040F0FD700860704701220168C0F8002565
:10265000002280F8F424886940F000608861486DA9
:1026600040F0805040F0030200204A6570470000AF
:10267000002804BF012070472DE9F04F8BB082463F
:10268000056890F8BD0428B900208AF8BC045046BB
:1026900000F0D0F803208AF8BD04E86BC0055CBFE9
:1026A0000020CAF81000DAF8000002F059FADAF84F
:1026B00000000AF120090A90DAE90B64DAF8340024
:1026C0000AF1040E99E880039EE82E58CDE90840EF
:1026D00004A880E880030A988DE82058079601F046
:1026E000FDFE002840F08880DAF800000021002577
:1026F00002F03EFADAF8041000295CD00AF13C003E
:102700004FF0010C0022002302EBC20200EB820713
:1027100000F82230DAB201333A81DAB2914287F816
:1027200001C03D71C7E90355BD61EDD80AF51F70C1
:1027300000220025002300BF05EBC50743F001057B
:10274000ECB200EB8706A142727000F827303271BC
:10275000C6E90322B2612ED904EBC40700F8275062
:1027600043F00205ECB200EB8706A14272703271B1
:10277000C6E90322B2611ED904EBC40700F8275052
:1027800043F00305ECB200EB8706A1427270327190
:10279000C6E90322B2610ED904EBC407043300F882
:1027A0002750DDB200EB8706A94272703271C6E98C
:1027B0000322B261C0D8DAF80800DAF800200A90E3
:1027C000DAE90C40DAE905650AF11C0EDAE90337AB
:1027D0009EE80058DAE90A89CDE9084002A880E8B5
:1027E000205810460A9ACDE90076CDF81880CDF829
:1027F0001C9001F073FF38B102208AF8BD0401205B
:102800000BB0BDE8F08F00BF00208AF8380001202F
:102810008AF8BD04DAF82400012802D15046FFF7F7
:1028200013FFDAF8000001F049FF00200BB0BDE80B
:10283000F08F0000F0B59DB0044600201C90CDE95B
:102840001A00CDE9180001A804305821FDF71FFF38
:102850002068B0F1A04F01D01DB0F0BD4FF48070E2
:10286000019001A800F03EF8002818BFFEF754F8C8
:10287000002743F630060097C4F2020630680024B1
:1028800040F0010030603068C4F2020400F0010042
:10289000009000984FF4E85018900220CDE91907F5
:1028A00003201B900A2018AD1C9020462946FEF7F5
:1028B0002FFF4FF40070CDE91807204629461A97DC
:1028C000FEF726FF706840F0800070600097706926
:1028D00040F480407061706900F48040009000987E
:1028E0001DB0F0BD2DE9F04381B00446006843F609
:1028F0008C06C107C4F2020604D14FF0000981071B
:102900000CD415E03168A26B21F0C0611143316035
:10291000B2FA82F14FEA5119810709D53168E26BA9
:1029200021F0C05111433160002A08BF4FF0010966
:10293000410705D44FF00008010712D420E000BF82
:102940003168226B21F4401111433160B2FA82F1F7
:102950004FEA5118B2F5801F08BF4FF00109010777
:102960000ED53168626B21F440011143B2F5800F3E
:10297000316008BF4FF00109002A08BF4FF001087D
:1029800081065AD50020009056F84C0C47F20007FB
:1029900040F0805046F84C0C56F84C0CC4F200073E
:1029A00000F0805000900098386840F480703860E3
:1029B000FEF792FF054600BF3868C00506D4FEF753
:1029C0008BFF401B0228F7D990E100BF56F81C0C82
:1029D00010F4407017D0216C01F44071884212D07D
:1029E00056F81C0C40F64061C4F24721012220F445
:1029F00040700A6000220A6046F81C0C56F81C0C55
:102A0000C00740F07B812068216C56F8842C4FF67B
:102A1000FF4701F4407322F4F812C0F6FF770F402D
:102A2000B3F5407F08BF3A4346F8842C56F81C2C77
:102A30006FF31F31114346F81C1CC10610D4010668
:102A400019D441061FD4C10525D4810530D44105D0
:102A500036D4B9F1010F18BFB0F5006F3CD062E079
:102A600094F8580040F64061C4F24721C1F8A00331
:102A700020680106E5D5B168E26C21F440011143FC
:102A8000B1604106DFD5B168A26C21F080611143CD
:102A9000B160C105D9D5B168626D21F00061114303
:102AA000B160B2F1006F08BF4FF001088105CED5CB
:102AB000B168626C21F080511143B1604105C8D505
:102AC000B268216D22F000520A43B0F5006FB26087
:102AD00018BFB1F1005F23D140F26809C4F2472961
:102AE0000020C9F80000FEF7F7FE054656F88C0CEA
:102AF000000105D5FEF7F0FE401B0228F6D9F5E0EF
:102B00002068C10702D0A16B00296FD0810702D5D0
:102B1000E16B00296AD0410700F17D807FE000BFB2
:102B2000B9F1010FD8D0B8F1000F4FF0000000F05C
:102B3000DE806827C4F24727B860FEF7CDFE054661
:102B400056F88C0C800005D5FEF7C6FE401B022807
:102B5000F6D9CBE02068410701D5216B19B10107F7
:102B60001AD5616BC1B956F8041CD4E9062301F4E7
:102B70004031656A114341EA831141EA0561D4F8A5
:102B80002CC046F8041C31686FF0FF0221F4F851A4
:102B900002EB0C2211433160C00516D5606DB0F117
:102BA000006F12D156F8040C226AD4E9061300F023
:102BB0007060D2034FF6FF75AA430843A2F5803236
:102BC00040EA8310104346F8040C0120B860FEF779
:102BD00083FE044656F88C0C800000F18B80FEF7D3
:102BE0007BFE001B0328F5D380E000BF56F8081CCD
:102BF00056F8082CD4E9013501F4403102F0706236
:102C000019436769114341EA851141EA077146F8A2
:102C1000081C410703D5216BB1F5801F05D00107C2
:102C20001FD5616BB1F5800F1BD156F8081C56F803
:102C3000082CD4E9013701F4403102F0E042194395
:102C40002569114341EA871141EA0561D4F828C09A
:102C500046F8081C3168ACF1010221F01F01114354
:102C6000316041051FD5216DB1F1005F1BD1271DDA
:102C700056F808CC56F8082CA8CFFF034FF6FF7182
:102C800027EA01014FF0C06702F0E04207EA4C2753
:102C900007F100771A433A43A1F5803142EA8512E1
:102CA000114346F8081C000510D5271D8FCF40EAB8
:102CB0008110D1034FF6FF729143A1F5803140EAB4
:102CC0000360084340EA077046F8080C0120C9F881
:102CD0000000FEF701FE054656F88C0C00013FF59A
:102CE00022AFFEF7F9FD401B0228F5D9032001B001
:102CF000BDE8F083002001B0BDE8F083FEF7ECFDF5
:102D0000054641F2883700BF56F81C0C80073FF596
:102D10007AAEFEF7E1FD401BB8424FF00300F3D955
:102D2000E5E70000002804BF012070472DE9F041CD
:102D300043F60808C4F202080446D8F8F8030D4622
:102D400000F00F00884207D288F8F853D8F8F8034B
:102D500000F00F00A84277D12068810717D54107FE
:102D600005D5D8F8001041F4E051C8F8001001076B
:102D700005D5D8F8001041F46041C8F80010D8F823
:102D80000010A26821F0F0011143C8F80010C0073C
:102D900040D1D8F8F80300F00F00A84207D988F80E
:102DA000F853D8F8F80300F00F00A8424CD120687F
:102DB000410707D5D8F80010E26821F4E05111432B
:102DC000C8F80010000708D5D8F80000216920F4E1
:102DD000604040EAC100C8F8000000F07DF8D8F873
:102DE000001045F24902C1F30311C0F60002515C24
:102DF00040F2080220FA01F140F20400C2F20000A1
:102E00000068C2F200021160FFF790FB0020BDE8ED
:102E1000F08100BF6068811E022907D258F8081CA3
:102E200089015CBF0120BDE8F08111E0012807D1D4
:102E300058F8081C89035CBF0120BDE8F08107E059
:102E400058F8081C890703D40120BDE8F08100BFB1
:102E5000D8F8001021F003010843C8F80000FEF77D
:102E60003BFD064641F28837D8F80000616800F063
:102E70000C00B0EB810F8CD0FEF72EFD801BB8420A
:102E8000F2D90320BDE8F08140F2080043F60801C2
:102E9000C2F20000C4F202010068096845F259025A
:102EA000C1F38221C0F60002515CC84070470000A7
:102EB00040F2080043F60801C2F20000C4F2020129
:102EC0000068096845F25902C1F34231C0F60002B8
:102ED000515CC8407047000010B543F60404C4F2CA
:102EE00002046068C0F3810142F20040C0F2F400C5
:102EF000DFE801F04202081841F20020C0F27A0037
:102F000010BD00BF216801F03F022168236849021B
:102F1000C3F3881116D4A1FB00010023FDF7E0F9EB
:102F200017E000BF216801F03F02216823684902D1
:102F3000C3F3881114D4A1FB00010023FDF7D0F9DD
:102F400015E000BF41F20020C0F27A004843B0FB18
:102F5000F2F021680222C1F3014102EB410109E0D4
:102F600041F20020C0F27A004843B0FBF2F0216841
:102F7000C1F30271B0FBF1F010BD0000002804BFE6
:102F8000012070472DE9F04182B00446007843F6F5
:102F90000006C007C4F202060CD0B06800F00C00B6
:102FA000042840F089803068800303D560680028D9
:102FB00000F050812078800723D5B06810F00C0F06
:102FC00011D0B06800F00C00082802D170684002EF
:102FD00009D5B06800F00C000C2840F09F807068A4
:102FE000400200F19B803068800703D5E06801282B
:102FF00040F030813068216920F0F80040EAC100DB
:1030000030602078000713D4207840072AD4A569BF
:10301000002D00F01A81B06800F00C00082840F084
:10302000AB80012D40F0E880012002B0BDE8F081C6
:103030006069002840F20000C4F2472000F0888058
:103040000121C0F8801EFEF747FC0546706F80071F
:10305000DAD4FEF741FC401B0228F7D9032002B066
:10306000BDE8F081306C5FEAC0080AD4002001900E
:10307000306C40F080503064306C00F08050019033
:10308000019847F20007C4F200073868C00537D43A
:10309000386840F480703860FEF71EFC054600BFBB
:1030A0003868C0052CD4FEF717FC401B0228F7D95E
:1030B000032002B0BDE8F081B06800F00C000828E1
:1030C00003D1706840023FF56EAFB06800F00C00AD
:1030D0000C2803D1706840023FF565AF6168306825
:1030E000B1F5803F07D0B1F5A02F40F0CB8040F480
:1030F00080203060306840F480303060CBE000BF2A
:10310000A168306F012905D0052957D140F004008E
:103110003067306F40F00100306759E0E068002808
:1031200000F09C800020C4F2472001210160FEF7DE
:10313000D3FB0546306880073FF55CAFFEF7CCFB5C
:10314000401B02284FF00300F4D902B0BDE8F08123
:103150000021C0F8801EFEF7BFFB0546706F800798
:103160007FF552AFFEF7B8FB401B0228F6D90320CB
:1031700002B0BDE8F08100BF0027C4F2472700205D
:103180003866FEF7A9FB022D05460BD13068800199
:1031900040F19280FEF7A0FB401B02284FF0030095
:1031A000F4D9D2E7306880014FD5FEF795FB401B7C
:1031B00002284FF00300F5D9C7E700BF20F0010057
:1031C0003067306F002920F00400306700F09880ED
:1031D000FEF782FB054641F2883700BF306F80075B
:1031E00000F1A080FEF778FB401BB842F6D903201F
:1031F00002B0BDE8F08100BF7068E16900F48002B0
:103200008A4227D1216A00F03F028A4222D147F642
:10321000C071626A0140B1EB821F1BD1A16A4FF6F7
:10322000FF73C903994300F44032A1F580318A420B
:1032300010D1E16A00F07062B2EB016F0AD1216B2C
:1032400000F0E040B0EB017F04D1002002B0BDE807
:10325000F08100BF012002B0BDE8F0810020C4F27F
:10326000472000210160FEF737FB054630688007E4
:103270007FF5C7AEFEF730FB401B02284FF003007E
:10328000F4D962E720F4803030603068002920F4FF
:103290008020306050D0FEF71FFB05463068800369
:1032A0003FF588AEFEF718FB401B6428F6D90320D3
:1032B00002B0BDE8F08100BF04F11C052FCD246BE6
:1032C000084340EA8210D9034FF6FF729143A1F5FB
:1032D000803140EA0560084340EA047070600120D4
:1032E0003866FEF7F9FA044630688001ADD4FEF77F
:1032F000F3FA001B02284FF00300F5D925E700BFC1
:10330000FEF7EAFA054641F2883700BF306F8007C2
:1033100008D5FEF7E1FA401BB8424FF00300F5D99B
:1033200013E700BFB8F1000F3FF571AE306C20F02D
:10333000805030646BE600BFFEF7CEFA054600BF52
:10334000306880037FF536AEFEF7C6FA401B64286E
:103350004FF00300F4D9F8E6411E0020B0EB116FE6
:103360001CBF012070474EF21002CEF200025160E5
:103370004EF62351CEF20001F0230B70072190602E
:1033800011607047704700007047000090F83C20C3
:10339000012A04BF02207047B0B501F108053CCDF9
:1033A000D1E900CE23F47C5322F470521A432EF458
:1033B000F0431A432CF4E0431A4324F4C0431A4365
:1033C0002A43C96922F480420368114359640021E9
:1033D00080F83C100020B0BD90F83C20012A4FF04E
:1033E000020254D010B580F83D200268D2F804E003
:1033F000D2F808C00C682EF07003234341F2FF742A
:10340000C4F20004A24253600EDC40F2FF73C4F227
:1034100000039A4216DCB2F1804F2BD040F20043F9
:10342000C4F2000324E000BF40F2FF33C4F2010302
:103430009A4213DC41F60003C4F200039A4219D009
:10344000002313E040F60003C4F200039A4211D0B7
:1034500040F60043C4F200030AE000BF44F2000358
:10346000C4F201039A4205D040F20043C4F20103C2
:103470009A4204D149682CF08003194391600121DC
:10348000002280F83D1080F83C20BDE81040104636
:1034900070470000002804BF0120704710B50446A3
:1034A00090F83D0028B9002084F83C00204600F048
:1034B0001FF8022084F83D002068211D00F000FF65
:1034C000012084F8460084F83E0084F83F0084F828
:1034D000400084F8410084F8420084F8430084F8F6
:1034E000440084F8450084F83D00002010BD000031
:1034F000006841F20001C4F20001884218BF704721
:1035000080B582B00020019043F64000C4F2020072
:103510000168002241F0100101600068002100F004
:103520001000019001983620FFF752F8362002B0C3
:10353000BDE88040FFF73AB87047000010B5016859
:1035400004460869800744BFC8685FEA807039D4C0
:103550000869400744BFC8685FEA40703ED4086904
:10356000000744BFC8685FEA007045D40869C00618
:1035700044BFC8685FEAC0604AD40869C0071CBF7E
:10358000C8685FEAC07051D10869000644BFC868C6
:103590005FEA006052D40869400644BFC8685FEA29
:1035A000406053D40869800646BFC8685FEA8060FF
:1035B00010BD6FF0200220460A61BDE81040FFF701
:1035C000E3BE00BF6FF00200086101202077886928
:1035D000800743D02046FFF7AFFF45E06FF00400BF
:1035E000086102202077886910F4407F40D020468F
:1035F000FFF7A2FF42E000BF6FF00800086104205F
:103600002077C86980073DD02046FFF795FF3FE04F
:103610006FF01000086108202077C86910F4407F1F
:103620003AD02046FFF788FF3CE000BF6FF0010072
:103630000861204600F04CFA2168A5E76FF0800091
:1036400008612046FFF79EFE2168A4E76FF0400066
:103650000861204600F03EFA2168A3E7204600F00A
:1036600053F8204600F0AAF92168002020776FE780
:10367000204600F049F8204600F0A0F9216800201B
:1036800020776CE7204600F03FF8204600F096F9DE
:1036900021680020207769E7204600F035F82046B1
:1036A00000F08CF921680020207766E780B586B0AD
:1036B00000210068C4F20101002288420592CDE990
:1036C00003220292019201D006B080BD43F6300081
:1036D0000092C4F20200036843F010030360006824
:1036E00000F01000009000984FF40070019002204C
:1036F000CDE902020120059001F5883001A904926C
:10370000FEF706F806B080BD7047000090F83C3028
:10371000012B04BF022070474FEAB202032A00F2D5
:10372000FF802DE9F043DFE802F003B13F7F00BFE7
:10373000036840F200461A6A43F4806522F00102F1
:103740001A621C6A1A46D3F804C052F818EF8F6840
:1037500024F00204C4F20106B54244EA070405D18C
:10376000CF6824F00C0427F004073C430F68B542EF
:1037700006D1D1E905582CF440762E4346EA080CD0
:103780002EF073063743C3F804C09F614F68096980
:103790005F631C629F6947F008079F619F6927F07C
:1037A00004079F61B1E000BF036840F200481A6A55
:1037B00043F4806522F480721A621C6A1A46D3F8B8
:1037C00004C052F81CEF8F6824F40074C4F201089E
:1037D000454544EA072408D1CF6840F2FF463F023E
:1037E00024F4406427EA06063443D1F800904545A6
:1037F00006D1D1E905562CF440572E4347EA061C62
:103800002EF0730747EA0907C3F804C0DF614F6869
:103810000969DF631C62DF6947F00807DF61DF6960
:1038200027F00407DF6170E0036840F200451A6A80
:1038300043F4806722F480521A621A46D3F820C0FB
:103840005C6852F81C8FD1F800E08E68C4F2010564
:10385000AF4204D14D6924F4804444EA85142CF429
:10386000005747EA063728F4E64646EA0E265C602B
:10387000DE614E6809691E641F62DF6947F40067F4
:10388000DF61DF6927F48067DF613DE0036840F2B4
:1038900000481A6A43F4806522F010021A621C6A1A
:1038A0001A46D3F804C052F818EF8F6824F02004A9
:1038B000C4F20108454544EA071407D1CF686FF008
:1038C000400624F0C00406EA07163443D1F80090FD
:1038D000454506D1D1E905562CF440672E4347EA09
:1038E000860C2EF4E64747EA0927C3F804C09F6117
:1038F0004F6809699F631C629F6947F400679F6175
:103900009F6927F480679F6109021368194311605A
:103910000021BDE8F043002280F83C2008467047B3
:103920000121002280F83C2008467047002804BF8F
:103930000120704710B5044690F83D0028B90020DA
:1039400084F83C00204600F01FF8022084F83D0077
:103950002068211D00F0B4FC012084F8460084F8A2
:103960003E0084F83F0084F8400084F8410084F869
:10397000420084F8430084F8440084F8450084F849
:103980003D00002010BD000000680021C4F20101CC
:10399000884218BF704781B00020009043F6440071
:1039A000C4F20200016841F001010160006800F00A
:1039B00001000090009801B07047000070470000BF
:1039C000C1B1042908D0082914BF41224022825CD9
:1039D000012A05D016E000BF3F22825C012A11D1E6
:1039E0000222082910D0042914BF80F8412080F851
:1039F0003F200BE090F83E20012A03D1022280F8FC
:103A00003E2003E00120704780F84020006801F06C
:103A10001F010122036A02FA01F123EA0102026294
:103A2000026A114341F2FF72C4F200029042016245
:103A30000CDC40F2FF71C4F20001884214DCB0F1EA
:103A4000804F37D040F2004116E000BF40F2FF3116
:103A5000C4F20101884215DC41F60001C4F2000104
:103A6000884227D0002115E040F60001C4F2000191
:103A700088421FD040F60041C4F20001884219D0AC
:103A80001FE000BF44F20001C4F20101884211D0DE
:103A900040F20041C4F20101884212D1416C40F26F
:103AA000004340F48062C4F2010341F400419A42B1
:103AB000416406D1816801F00701062904BF002096
:103AC0007047016841F0010101600020704700006B
:103AD0007047000070470000002804BF01207047B5
:103AE00010B5044690F83D0028B9002084F83C0049
:103AF000204600F021F8242084F83D002068C168A9
:103B000021F40051C160204600F074FC2068016976
:103B100021F490410161416921F02A014161C168AC
:103B200041F40051C16000202021206484F83D1040
:103B300084F83E1010BD000080B586B044F6000148
:103B40000068C4F20001002288420592CDE90322F8
:103B50000292019202D006B080BD00BF43F6300051
:103B60000092C4F20200036943F4802303610369F5
:103B700003F480230093009B0092036843F0080342
:103B80000360006800F00800009000984FF4407057
:103B900001900220CDE90202032004900720059045
:103BA00001F5E23001A9FDF7B3FD06B080BD0000CC
:103BB0002DE9F04381B0044690F83D0020280DD156
:103BC0000F4600294FF0010018BF002A02D101B0B2
:103BD000BDE8F08394F83C00012803D1022001B035
:103BE000BDE8F083012084F83C00002020642120FF
:103BF0001D4684F83D001646FDF76EFEA684E68459
:103C0000A1680646B1F5805F03D12069002800F065
:103C10000D81B8460027002084F83C00E18C206824
:103C2000002900F08F8005F101090CE0B8F1000FC8
:103C300028D018F8011B4160E18C0139E184E18C46
:103C4000002900F07F8001680906EFD4B9F1000F68
:103C50000AD0FDB1FDF740FE801BA8421AD82068AB
:103C600001680906F6D5E1E701680906DED40168B6
:103C700009065CBF01685FEA0161D7D401680906E3
:103C8000F2D5D3E737F8021B4FF000086FF35F213E
:103C9000D1E700BF206850E8030F216820F4D070FE
:103CA00041E80302BAB3206850E8030F216820F40A
:103CB000D07041E8030272B3206850E8030F216816
:103CC00020F4D07041E803022AB3206850E8030FC3
:103CD000216820F4D07041E80302002ADAD11AE00A
:103CE000206850E8050F216820F0010041E8050236
:103CF000DAB1206850E8050F216820F0010041E8A2
:103D0000050292B1206850E8050F216820F00100FB
:103D100041E805024AB1206850E8050F216820F00B
:103D2000010041E80502002ADAD1202084F83D0094
:103D300084F83E00002084F83C00032001B0BDE878
:103D4000F08300BF016849060FD4F5B1691C17D193
:103D50000168490609D4016849065CBF01685FEA49
:103D6000416102D401684906F2D5202084F83D0063
:103D7000002001B0BDE8F083206800684006F4D45C
:103D8000FDF7AAFD801BA842F6D9206850E8030F72
:103D9000216820F4D07041E80302E2B3206850E8C3
:103DA000030F216820F4D07041E803029AB3206821
:103DB00050E8030F216820F4D07041E8030252B3A9
:103DC000206850E8030F216820F4D07041E8030216
:103DD000002ADAD11FE000BF206850E8050F2168F3
:103DE00020F0010041E80502002A9ED0206850E83A
:103DF000050F216820F0010041E80502002A94D057
:103E0000206850E8050F216820F0010041E8050214
:103E1000002A3FF48AAF206850E8050F216820F09F
:103E2000010041E80502002AD6D17EE74FF00008E4
:103E3000F1E60000FEE7000080B540F274000021CA
:103E4000C2F20000C5F20501002220234FF0800CD1
:103E500080E80E10C0E904228261C0E90822C0E9AE
:103E60000A220263FCF7B4FD002808BF80BDEFF30F
:103E7000108072B6FEE7000080B582B0002001908D
:103E800043F63000C4F202000168002241F48001D0
:103E900001600068002100F4800001900198392041
:103EA000FEF796FB392002B0BDE88040FEF77EBBEE
:103EB0002DE9F04786B0002743F630000597CDE99D
:103EC0000377CDE901770097C4F20200016841F65B
:103ED000000A41F0100101600168C4F2020A01F019
:103EE00010010091009900970168AAF5A05541F0D2
:103EF000040101600168002201F0040100910099B1
:103F00000097016844F2810841F0200101600168D6
:103F100001F02001009100990097016841F08001B3
:103F20000160016801F0800100910099009701682B
:103F300041F001010160016801F001010091009967
:103F40000097016841F002010160016801F002017F
:103F5000009100990097016841F008010160016833
:103F600001F00801009100990097016841F04001BB
:103F70000160006844F2810100F040000090009868
:103F80002846FDF7A3FC5046402100224FF040098F
:103F9000FDF79CFC4FF4005001904FF4881001AEE7
:103FA000CDE90207AAF580503146FDF7B1FB0124A7
:103FB00028463146CDF80480CDE902470497FDF745
:103FC000A7FB50463146CDE90194CDE90377FDF7D3
:103FD0009FFB8020CDE90107504631460397FDF74E
:103FE00097FB282000210022FEF7F2FA2820FEF796
:103FF000DDFA06B0BDE8F08780B540F2241045F642
:104000000001C2F20000C4F2000148F2A0620023E5
:104010004FF4804CC0F2010280E80E00C0E9033C7E
:10402000C0E90533C0E90733FDF75CFC002808BF91
:1040300080BDEFF3108072B6FEE7000010B592B0BD
:1040400040F2846000220021C2F20000C4F20102AA
:1040500014238024CDE910110791C0E90021C0E9A3
:104060000213C0E904118461FFF760FC20B1EFF393
:10407000108072B6FEE700BF40F28460C2F200001A
:1040800010A9FFF7A9F928B1EFF3108072B600BFAD
:10409000FEE700BF602009900A200A9040F2846089
:1040A0000024C2F2000009A90022CDE90B44CDE9A9
:1040B0000D440F94FFF72AFB20B1EFF3108072B686
:1040C000FEE700BF4FF40050069040F28460C2F259
:1040D000000001A90594CDE90344CDE90144089409
:1040E000FFF754F920B1EFF3108072B6FEE700BF7E
:1040F00040F28460C2F20000FFF7D8FA12B010BD9F
:1041000080B582B040F2CC6041F200020021C2F2E0
:104110000000C4F200024FF6FF73CDE90011C0E9C0
:104120000021C0E902138161FFF7B4F920B1EFF378
:10413000108072B6FEE700BF40F2CC60C2F2000011
:104140006946FFF749F928B1EFF3108072B600BF56
:10415000FEE700BF02B080BD80B540F2147044F6A7
:104160000001C2F20000C4F2000100234FF00C0C69
:104170004FF4E13280E80E00C0E90333C0E905C323
:10418000C361FFF7A9FC002808BF80BDEFF31080D2
:1041900072B600BFFEE7000080B540F27810C2F2B0
:1041A00000004FF0A0410622C0E9001202210022C7
:1041B0000123C0E90312C0E90613C0E90822C0E9DF
:1041C0000B32FEF755FA002808BF80BDEFF31080D0
:1041D00072B600BFFEE70000FEE70000FEE7000049
:1041E0007047000070470000FEF776B970B594B0D4
:1041F00007AC20463421FCF74AFA002543F640007C
:104200000695CDE90455CDE902550195C4F20200A9
:104210000168022641F080510160006800F0805082
:104220000190019847F200000195C4F20000016876
:1042300041F440410160006800F440400190019861
:10424000012007904FF4A02008904FF480000E90BA
:1042500004200F90A820CDE910060720CDE9120612
:1042600020460D96FEF78AFE20B1EFF3108072B65D
:10427000FEE700BF0F20CDE902064FF4A0500590E5
:104280004FF48050069002A805210495FEF74AFDE0
:1042900020B1EFF3108072B6FEE700BF14B070BD1E
:1042A0004EF68850CEF20000016841F470010160C2
:1042B0007047000040F2CC60C2F20000FFF73EB948
:1042C00010B540F6FF3E0368C4F2000E40F2004C09
:1042D0007045C4F2010C25DCB0F1804F2FD040F2C4
:1042E0000042C4F20002904229D040F60002C4F21B
:1042F0000002904223D041F6FF72C4F200029042C5
:1043000027DC70453ADCB0F1804F5BD040F20042D0
:10431000C4F20002904255D040F60002C4F20002FE
:104320004EE000BF40F60042C4F20002904206D0C8
:10433000604504D00022C4F201029042DBD14A68F9
:1043400023F07003134341F6FF72C4F2000290425F
:10435000D7DD43F6FF72C4F20102904220DC42F244
:104360000002C4F2000290422CD00022C4F20102EA
:10437000904227D0604525D028E000BF40F600429B
:10438000C4F2000290421DD041F60002C4F20002C5
:10439000904217D041F60042C4F2000210E000BF84
:1043A00044F20002C4F2010290420BD044F6000233
:1043B000C4F20102904205D044F20042C4F201026C
:1043C000904203D1CA6823F44073134323F0800260
:1043D0004B69D1F800E08C681A430260C46240F473
:1043E0008062C0F828E0624504BF096901630121C9
:1043F000416110BDB0B50446006804F108030ECB5E
:104400000569194325F440552A4302616269E3694D
:104410001143C268194349F20C639A431143C160C6
:104420004169A26921F4407141F20043114340F413
:104430008062C4F201039A42416103D1FEF738FD64
:1044400002E000BFFEF720FDE1694FF69C7563684E
:104450001922C0F6FF75B1F5004FA0FB02011FD174
:104460005A00DB0FFBF73CFF48F21F51C5F2EB117E
:10447000A0FB01235A0905F1805302FB03003223FC
:1044800003EBC000A0FB01014FF4F87000EA11102B
:1044900000EB0210C1F34211084421688860B0BDEE
:1044A0009A009B0FFBF71CFF48F21F51C5F2EB115E
:1044B000A0FB01235A0902FB0500322303EB001085
:1044C000A0FB0101F02000EA511000EB0210C1F343
:1044D0004311084421688860B0BD000082B004998F
:1044E000DDF808C0012940F64051C0F203016FD148
:1044F000826B4FF6BF7322F480328263C268CFF6BC
:10450000BD731A40C260C2680B9B22F44012012B9B
:10451000C26003D1C26842F48012C26000220092DD
:10452000009A01320092009A8A4200F2A980026940
:10453000002A1ED4009A01320092009A8A4200F2A8
:104540009F800269002A14D4009A01320092009AD6
:104550008A4200F295800269002A0AD4009A013248
:104560000092009A8A4200F28B800269B2F1FF3F0A
:10457000D6DC00220092026942F001020261009A38
:1045800001320092009A8A427AD80269D2071AD080
:10459000009A01320092009A8A4271D80269D207C9
:1045A00011D0009A01320092009A8A4268D80269BA
:1045B000D20708D0009A01320092009A8A425FD84E
:1045C0000269D207DBD10021BCF1010F72D169E091
:1045D000C268089B42F04002C26000220192019A28
:1045E00001320192019A8A4250D80269002A1BD4F2
:1045F000019A01320192019A8A4247D80269002A3F
:1046000012D4019A01320192019A8A423ED802697B
:10461000002A09D4019A01320192019A8A4235D8BE
:104620000269B2F1FF3FDADC00220192026942F036
:1046300001020261019A01320192019A8A4225D84F
:104640000269D2071AD0019A01320192019A8A4274
:104650001CD80269D20711D0019A01320192019A45
:104660008A4213D80269D20708D0019A0132019216
:10467000019A8A420AD80269D207DBD1002106E0FA
:104680000321BCF1010F15D10CE000BF0321826BA7
:10469000002B14BF22F4803242F480328263BCF1DA
:1046A000010F07D1826842F006028260826842F000
:1046B00020028260084602B0704700000146D0F830
:1046C000000E20F00300C1F8000ED1F8040840F0FD
:1046D00002020020C1F80428704700002DE9F04FC5
:1046E00083B0DDF84C800E9F0022B8F1000F00F57A
:1046F000006BC0F80421C0F80821C0F80C21C0F8F4
:104700001021C0F81421C0F81821C0F81C21C0F8ED
:104710002021C0F82421C0F82821C0F82C21C0F89D
:104720003021C0F83421C0F83821C0F83C2105D030
:10473000866B46F40016866312E000BFD0F804686A
:1047400046F00206C0F80468866B26F400168663FD
:10475000066846F040060660066846F08006066079
:104760000026C0F8006ED0F80068012FC0F800687D
:1047700006D1DBF80070002B18BF47F0010703E0FB
:10478000DBF8003043F00307DDF83CE0DDF8309063
:1047900040F64055C0F203050023C0F800780193AD
:1047A000019B01330193019BAB4249D80369002B64
:1047B0001BD4019B01330193019BAB4240D8036999
:1047C000002B12D4019B01330193019BAB4237D8DC
:1047D0000369002B09D4019B01330193019BAB4278
:1047E0002ED80369B3F1FF3FDADC002301934FF4C5
:1047F00084630361019B01330193019BAB421FD88A
:1048000003699B061AD5019B01330193019BAB42BF
:1048100016D803699B0611D5019B01330193019BB7
:10482000AB420DD803699B0608D5019B0133019368
:10483000019BAB4204D803699B06DBD4002400E053
:10484000012400230293029B01330293029BAB429B
:1048500048D80369002B1BD4029B01330293029BAF
:10486000AB423FD80369002B12D4029B0133029361
:10487000029BAB4236D80369002B09D4029B01335B
:104880000293029BAB422DD80369B3F1FF3FDADC00
:104890000023029310230361029B01330293029BC6
:1048A000AB421FD80369DB061DD5029B013302937F
:1048B000029BAB4216D80369DB0614D5029B013379
:1048C0000293029BAB420DD80369DB060BD5029B1A
:1048D00001330293029BAB4204D80369DB06DBD4AD
:1048E00001E000BF01244FF0000A0029CBF810A01E
:1048F000CBF814A0CBF81CA000F004810094D0F8F1
:1049000000394FF0006202EA13134FF67F354E1E56
:10491000C0F80039C0F810A9C0F8085976D08B1E2D
:10492000032B06F0030905D22024B9F1000F42D170
:104930006CE000BF26F0030700244FF0904E4FF6C6
:104940007F384FF0000C00BF00EB0C03D3F8205968
:10495000043F0EEAE575C3F82059C3F83049C3F89F
:104960002889D3F840590CF1800C0EEAE575C3F89C
:104970004059C3F85049C3F84889D3F860590EEA42
:10498000E575C3F86059C3F87049C3F86889D3F86E
:1049900080590EEAE575C3F88059C3F89049C3F809
:1049A0008889D1D1DDF84C800CF120044FF67F3599
:1049B000B9F1000F2AD000F510631D594FF0904C4B
:1049C0000CEAE5751F191D514FF67F3500244FF68F
:1049D0007F3EB9F1010F3C61C7F808E016D03B6A91
:1049E000B9F1020F0CEAE3733B623C63C7F828E0BD
:1049F0000CD03B6C4FF0904505EAE3733B64002319
:104A00004FF67F353B654FF67F33BB64D0F8003BF4
:104A1000DDF83CE002EA1313C0F8003B0023C0F8C5
:104A2000103BC0F8085BDDF83090009C002E69D088
:104A30000239032906F0030C04D22023BCF1000F35
:104A40003BD15FE026F0030300244FF090474FF680
:104A50007F3600214518D5F8202B043B07EAE27287
:104A6000C5F8202BC5F8304BC5F8286BD5F8402B7E
:104A700001F1800107EAE272C5F8402BC5F8504BFE
:104A8000C5F8486BD5F8602B07EAE272C5F8602BD1
:104A9000C5F8704BC5F8686BD5F8802B07EAE27251
:104AA000C5F8802BC5F8904BC5F8886BD2D1009C17
:104AB00001F12003BCF1000F24D000F53062D6587C
:104AC0004FF0904707EAE676D118D65000264FF609
:104AD0007F33BCF1010F0E618B6013D00A6ABCF109
:104AE000020F07EAE2720A620E638B620AD00A6C56
:104AF0004FF0904303EAE2720A6400220A654FF61F
:104B00007F328A64DBF81010B9F1000F21F4807154
:104B1000CBF810106FF08041C0F818A0416103D1AC
:104B2000816941F010018161816943F60002C8F298
:104B30003C021143BEF1000F816103D0816941F055
:104B400008018161B8F1010F05D1816941F080410F
:104B500041F004018161204603B0BDE8F08F000000
:104B60000146806820F0010200208A607047000042
:104B7000B0B50446C06820F0C040E06091B10129A2
:104B800026D1E068002540F00050E0600120FCF7ED
:104B90009DFD6069C00705F1010014D1312D054666
:104BA000F4D310E0E068002540F08040E06000BFF2
:104BB0000120FCF78BFD6069C00705F1010002D000
:104BC000312D0546F4D33238B0FA80F04009B0BD3B
:104BD0000120B0BDFEE7000040F20048C4F2020828
:104BE000FDF788FCFFF702FBFFF762F9FFF744F9D6
:104BF000FFF722F9FFF7B0FAFFF7CEFAFFF7FCF95B
:104C0000FFF71CFAFFF77CFA40F2C400C2F2000082
:104C10000068016841F0100101603920FDF7C6FC11
:104C200040F28460C2F200000021FEF7C9FE00F0ED
:104C300069F800F0E9F808F5806500BF40460121F9
:104C4000FCF73CFE6420FCF741FD28464FF4005180
:104C5000FCF72EFE0028F1D040468021FCF72EFE06
:104C60006420FCF733FD40F274054CF6183640F230
:104C70007007C2F20005C2F20006C2F2000700246B
:104C80000BE000BF40464FF48041FCF717FE28467A
:104C90003C70FBF7B9FF00F009F92846FCF750F823
:104CA000304600F00BF838780028EBD10A20FCF7EA
:104CB0000DFD38780028F9D0E4E7000080B59AB0FF
:104CC00040F274004CF61832C2F20000C2F2000248
:104CD000002143F2F003FBF7AFFF88B145F260100B
:104CE000C0F6000090E80E10008A0DF1040EADF839
:104CF000140001A88EE80E00CDF810C000F0C6F830
:104D00001AB080BD10B59AB010A000F0BFF80A200C
:104D100000F030F876280DD147F26530C0F67320E8
:104D2000029047F273500024C6F263308DF80C40B5
:104D3000019005E0024608A101A8FBF749FB012408
:104D400001A800F0A3F820461AB010BD696E69747E
:104D50005F746573740D0A0057726F6E672070720E
:104D60006F64756374206964202830782578290D74
:104D70000A0000002DE9F0439BB08DF86B0040F273
:104D8000241042F21078C2F200000DF16B024221B1
:104D90000123CDF80080FDF759F918B347F26F29C8
:104DA00047F2452740F22415C0F20A09C6F6727789
:104DB00001ACC2F200050DF16B0600BF2046CDF834
:104DC0000790019700F062F84FF47A70FCF77EFCD0
:104DD0002846422132460123CDF80080FDF736F9FE
:104DE0000028EBD140F224104FF0FF37C2F2000050
:104DF0000DF16A02432101230097FCF725FE9DF87F
:104E00006A001BB0BDE8F0832DE9F04F87B045F292
:104E1000610840F2241447F26F2B47F245274FF008
:104E20000009C0F6000842F2107AC2F200040DF147
:104E30000605C0F20A0BC6F6727702AE08E000BFA4
:104E40000A20FCF743FC09F10109B9F17A0F19D0E6
:104E500038F81900ADF80600204642212A46022300
:104E6000CDF800A0FDF7F2F80028E9D03046CDF8E3
:104E70000BB0029700F00AF84FF47A70FCF726FCAA
:104E8000EAE700BF07B0BDE8F08F000010B50446A8
:104E9000FBF7DEFB82B240F21470C2F20000214642
:104EA0006423BDE81040FEF783BE0000B0B584B0B7
:104EB0000A20039044F24C50C0F62150029044F274
:104EC0004510C4F24D20019040F60D20C5F250204F
:104ED000009040F25870C2F200004CF618320130D7
:104EE0004CF2BC31C2F2000253185D78DC789B783A
:104EF00000F8014C0370457021B1535C0439837094
:104F00000430F1E740F21474C2F200046D4620460A
:104F1000294601224FF0FF33FEF74AFE691C204666
:104F200001224FF0FF33FEF743FEA91C2046012269
:104F30004FF0FF33FEF73CFEE91C204601224FF004
:104F4000FF33FEF735FE291D204601224FF0FF33C7
:104F5000FEF72EFE691D204601224FF0FF33FEF7BB
:104F600027FEA91D204601224FF0FF33FEF720FE49
:104F7000E91D204601224FF0FF33FEF719FE05F12F
:104F80000801204601224FF0FF33FEF711FE05F124
:104F90000901204601224FF0FF33FEF709FE05F11B
:104FA0000A01204601224FF0FF33FEF701FE05F112
:104FB0000B01204601224FF0FF33FEF7F9FD05F10A
:104FC0000C01204601224FF0FF33FEF7F1FD40F2C5
:104FD0005871C2F2000120464CF2C0324FF0FF334C
:104FE000FEF7E6FD04B0B0BD30380A2801D201203A
:104FF000704700207047F1EE100A4FF6FF71C0F2C3
:10500000C03120EA010040F04070E1EE100A704724
:1050100030313233343536373839414243444546EE
:1050200040305800303132333435363738396162E8
:1050300063646566403078000400000800000000EA
:10504000000000020001000010000000000000004D
:105050000001020304060708090000000001020322
:1050600004128012080C0811401101328017171821
:1050700005030A19021A7A703A7135721173FAA28D
:10508000014F80508051005222535E5480589E7AC6
:10509000207B107C1E7D357E5A7F698076818082E0
:1050A00088838F849685A386AF87C488D789E8A52F
:1050B00005AB072495253326E39F78A068A103A6B6
:1050C000D8A7D8A8F0A990AA941000430A44F045A4
:1050D0003446584728483A59885A885B445C675D8B
:1050E000495E0E6C0A6D556E116F9F6A4001400259
:1050F0006013E734113F00750576E14C007701B885
:105100000A41183B12A48896009730982099309A4B
:10511000849B299C039D4C9E3F78040E610F4B1687
:10512000021E00210222912907330B350B371D384F
:1051300071392A3C784D404E2069006B3A74108DCD
:105140004F8E008F009000910096009A00B10CB233
:105150000EB3824B01000610160006101600000068
:105160004572726F7220444D41206661696C6564BE
:105170000A000000737563636573730A0000000022
:10518000A0510008000000201000000028020008C4
:10519000B051000810000020D0940100480200081F
:1051A00001000000100000000024F40000000000D6
:04000005080001C529
:00000001FF
