:020000040800F2
:10000000F81C0020A1020008A12C00089929000872
:100010009D2C000859070008FD3900080000000069
:10002000000000000000000000000000A92C0008F3
:100030006907000800000000A52C0008AD2C00088E
:10004000BB020008BB020008BB020008BB0200089C
:10005000BB020008BB020008BB020008BB0200088C
:10006000BB020008BB02000875070008BB020008BD
:10007000BB020008BB020008BB020008BB0200086C
:10008000BB020008BB020008BB020008BB0200085C
:10009000BB020008BB020008BB0200087D07000885
:1000A000BB020008BB020008BB020008BB0200083C
:1000B000BB020008BB020008BB020008BB0200082C
:1000C000BB020008BB020008BB020008BB0200081C
:1000D000BB020008BB020008BB020008BB0200080C
:1000E0006D070008BB020008BB020008BB02000845
:1000F000BB020008BB020008BB020008BB020008EC
:10010000BB020008BB020008BB020008BB020008DB
:10011000BB020008BB020008BB020008BB020008CB
:100120005D070008BB020008BB020008BB02000814
:10013000BB0200080000000000000000BB02000835
:10014000BB020008BB020008BB020008BB0200089B
:10015000BB020008BB020008BB020008BB0200088B
:10016000BB020008BB020008BB020008BB0200087B
:10017000BB020008BB020008BB0200080000000030
:1001800000000000BB0200080000000000000000AA
:10019000BB0200080000000000000000BB020008D5
:1001A000000000000000000000000000BB0200088A
:1001B000BB020008BB020008BB020008BB0200082B
:1001C000BB02000800F002F800F05AF814A696E806
:1001D000000CB244B344DA4501D100F051F8BAE85A
:1001E0000F000FA696E83000A5EB040504EB060708
:1001F000AAEB0704A7F101074FEA15154FEA3414DB
:10020000A4F10104AC4201D300F03AF813F0010F5D
:1002100018BFFB1A43F0010300F001F8DBE71847B1
:100220001839000038390000103A24BF78C878C166
:10023000FAD8520724BF30C830C144BF04680C60EC
:1002400070470000704700000023002400250026AE
:10025000103A28BF78C1FBD8520728BF30C148BF29
:100260000B607047642900F0FB80752900F0F8806E
:10027000002070471FB503F042FC1FBD10B510BD34
:1002800000F0E9F91146FFF7F5FF03F0B9FB00F0C4
:1002900007FA03B4FFF7F2FF03BC00F00FFA000007
:1002A0000948804709480047FEE7FEE7FEE7FEE70A
:1002B000FEE7FEE7FEE7FEE7FEE7FEE70448054946
:1002C000054A064B704700005D2D0008C501000877
:1002D000F8160020F81C0020F8180020F81800205C
:1002E00053EA020C00F069802DE9F04B4FF0000654
:1002F000002B1FBFB3FA83F503FA05F424FA05F6C1
:100300005E4012BF1643B2FA82F502FA05F4C5F157
:1003100020051EBF22FA05FC44EA0C04203556EAEB
:10032000044C4FEA144418BF641C4FF000084FF00F
:100330000009904271EB030C39D3002919BFB1FABF
:1003400081F701FA07F6B0FA80F700FA07F6C7F16D
:1003500020071EBF20FA07FC46EA0C062037B6FB32
:10036000F4FCA7EB0507103F07F01F0BCBF12006AD
:100370002CFA06F60CFA0BFB44BFB3460026202FDE
:10038000A4BF5E464FF0000B5BEA060C08BF4FF0BF
:10039000010B19EB0B0948EB0608ABFB027C06FBD3
:1003A00002CC0BFB03CCC01B71EB0C01C1E70B466D
:1003B000024641464846BDE8F08B13B5084318BFD6
:1003C0004FF0FF300146AFF30080BDE81C4070479E
:1003D0000FB41CB5074B06AA7B44694600900598EC
:1003E00000F021F90020694600F030F91CBC5DF8EE
:1003F00014FB0000710200002DE9F0410E46044696
:10040000002020622046E168884730B3252805D0C7
:10041000D4E901219047206A401CF2E7E1682046B8
:1004200000278847050018D0A5F14100192802D8F7
:1004300020354FF400673246294620462760FFF7F3
:1004400011FF40B1012804D0F61D26F0070608363A
:10045000D8E7361DD6E72846DAE7206ABDE8F081FE
:100460002DE9F0410646002410687529314616A58D
:1004700010D0AFF30080002802DA404213A507E055
:1004800031688A0701D512A502E0490704D511A5F4
:10049000012401E0AFF3008000210A2206F12407C5
:1004A00009E0B0FBF2FCB0FBF2F302FB1C003030C1
:1004B00078541846491C0028F3D123462A46304672
:1004C000BDE8F04100F051B8000000002D00000030
:1004D0002B0000002000000010B5431C02E010F8C3
:1004E000011B71B18107FAD14FF0013202C88C1A99
:1004F0008C4314EAC211F9D0C01A0A0603D0C01EF8
:1005000010BDC01A10BD0A0401D0801E10BD090222
:10051000FCD0401E10BD4FF0000200B513469446BB
:100520009646203922BFA0E80C50A0E80C50B1F14B
:100530002001BFF4F7AF090728BFA0E80C5048BF5F
:100540000CC05DF804EB890028BF40F8042B08BFFD
:10055000704748BF20F8022B11F0804F18BF00F8F9
:10056000012B70477047704770472DE9F0470D46E3
:1005700099469246044600F124080168880604D58D
:10058000E06921F01001216000E00120A84201DDB6
:10059000471B00E00027A1697A1902EB0900081A3D
:1005A000A0612078C00602D42046AFF30080002668
:1005B00008E0D4E901211AF806009047206A401C9F
:1005C000761C20624E45F4DB2078C0060AD5204612
:1005D000AFF3008006E0D4E9012130209047206A83
:1005E000401C2062381EA7F10107F4DC07E0D4E9C3
:1005F000012118F805009047206A401C2062281E3F
:10060000A5F10105F3DC2046AFF300802078000659
:1006100002D50220BDE8F0870120FBE701694A1CF2
:1006200002610878704700B58FB0CDE90131002133
:10063000059105497944CDE9031011466846FFF755
:10064000DBFE0FB000BD0000E5FFFFFF0A6802F807
:10065000010B0A607047754600F02CF8AE460500A5
:100660006946534620F00700854618B020B5FFF7CD
:1006700025FEBDE820404FF000064FF000074FF088
:1006800000084FF0000BAC46ACE8C009ACE8C0096C
:10069000ACE8C009ACE8C00921F007018D467047FD
:1006A00010B50446AFF300802046BDE81040FFF7C8
:1006B000F0BD0000004870471000002001491820DC
:1006C000ABBEFEE726000200704700000146806BCB
:1006D000036C026C13F0500F08D0D20648BF00F034
:1006E0002FB9806BC26C0846104700BF42F40071FE
:1006F000016401688A6812F0405F01D000F006B919
:10070000027E002AFAD1CA6A12F4700F02D08A68F7
:100710005205F3D44A6822F020024A60016C21F4A9
:1007200080710164016CC90448BF00F0EFB8016C2E
:1007300041F00101016400F0E9B80000806B402144
:100740000164416C41F00401416400F0F9B800001B
:10075000806B00F0F3B80000FEE7000041F2BC003F
:10076000C2F2000000F05EBB704700004FF4005082
:1007700000F054BD102000F051BD000080B52020D5
:1007800000F04CFD402000F049FD8020BDE8804095
:1007900000F044BD72B600BFFEE7000070B581B046
:1007A0000022009290F83C20012A03D1022001B0DF
:1007B00070BD00BFD1F800E00122BEF10A0F1FFAA0
:1007C0008EFC80F83C2009D34FEA4C02036812FAF1
:1007D0008EF2A2F11E0403F10C0204E003680EEB9A
:1007E0004E0403F1100207251668A54026EA050508
:1007F00015608D68166805FA04F43443146049687E
:10080000062907D801EB81014A1F194651F8345FC8
:100810000FE000BF0C2901EB810105D8A1F12302F3
:10082000194651F8305F04E0A1F14102194651F830
:100830002C5F1F24944025EA04040C600CFA02F299
:100840000C6842F2043CC4F2010C2243ACF5417442
:10085000A3420A6006D0002180F83C10002001B0BD
:1008600070BD00BF1221BEF1110FC1F2000118BF0F
:100870008E453BD1DCF800208E4522F48002CCF876
:100880000020DCF8002042F40002CCF80020E2D185
:1008900040F20801C2F2000109684DF68362C4F219
:1008A0001B32A1FB0212910C01EB81014900009166
:1008B00000990029CFD000BF00990139009100991B
:1008C0000029C8D000990139009100990029C2D0AF
:1008D00000990139009100990029BCD00099013993
:1008E000009100990029E7D1B5E700BFBEF1120FD2
:1008F000B1D1DCF8001021F40001CCF80010DCF8D4
:10090000001041F48001CCF80010A4E7016842F225
:100910000000C4F20100814218BF704710B500F515
:1009200064400121012400F05BFD40F27000C2F23E
:1009300000000470BDE810407047000070470000E0
:1009400070470000002804BF0120704710B5016CFB
:1009500000293DD0016CC90645D4016C41F2021258
:100960009143023142F204320164C4F2010211687F
:1009700021F440311160136890E812102343D0F83D
:1009800010E013604A68012422F480724A604A68C9
:10099000C0F6007442EA0E224A604A6822F04072B1
:1009A0004A604A6842EA0C024A608A6822F400629D
:1009B0008A60C2688B681A438A60826A8B68A24226
:1009C00023F070638B608B6810D123F0405216E0E7
:1009D000044600F065F820460021616484F83C106C
:1009E000016CC906B9D5012153E000BF1A438A60E2
:1009F0008A6822F040528A60C26A8B681A438A6011
:100A00008A6822F002028A608A68037E90F8204099
:100A100042EA43028A604A6884B142F400624A6052
:100A20004A684EF2000322F460424A60426ACFF6FE
:100A3000FF734C6803EB4232224301E022F4006270
:100A40004A60CA6A40F2000C22F47002CA62C369AA
:100A50004269CFF6F07CCC6A0CEB03532343CB62A4
:100A60008B6823F400738B6090F830308C6844EA14
:100A700043238B608B6823F480638B608B6843EA2D
:100A800082228A6000214164026C012363F3010227
:100A90000264002280F83C20BDE810400846704700
:100AA00070B586B0044642F200002168C4F201002D
:100AB000002681420596CDE903660296019601D093
:100AC00006B070BD43F630010096C4F202014A69D7
:100AD00000F5604042F480724A614A6902F4807213
:100AE0000092009A00960A6842F004020A600A68BE
:100AF00002F004020092009A00960A6842F0010295
:100B00000A60096801F00101009100990121019139
:100B10000321CDE9021601A900F08CFB41F2BC05CE
:100B200046F21040C2F20005C4F202004FF48061A8
:100B3000C5E9000605F110004FF400624FF40053C0
:100B40004FF4807C80E80E104FF40030C5E90806B1
:100B50002846C5E9026600F047FA002818BFFFF7EB
:100B600019FEA563AC6306B070BD0000B0B582B0DD
:100B70000023019390F83C30012B03D1022002B0F6
:100B8000B0BD00BF8E460123016880F83C308B6801
:100B90009446DB0729D18B684DF6836443F001034B
:100BA0008B6040F20803C2F200031B68C4F21B34DE
:100BB000A3FB0434A30C03EB43030193019BA3B1F8
:100BC000019B013B0193019B7BB1019B013B019385
:100BD000019B53B1019B013B0193019B2BB1019BF5
:100BE000013B0193019B002BEAD18B68DB0503D508
:100BF0008B6823F480738B608C68036CE4070BD1E3
:100C000043F0100101644430012102681143016086
:100C1000002002B0B0BD00BF40F20174A34303F551
:100C2000807303644B685B0504D5036C012464F393
:100C30000D330364046C0023E4044FF0000444BF4C
:100C4000446C24F00604446480F83C30836B40F22A
:100C5000CD6440F25172C0F60004C0F60002C3E950
:100C60000F4240F23D72C0F60002DA646FF02202D9
:100C70000A604A6842F2043442F080624A608A683C
:100C8000054642F480728A604C31184672466346CB
:100C9000C4F2010400F05AFA21682868C90607D096
:100CA000A4F54171884227D0002002B0B0BD00BF3A
:100CB00042F20001C4F20101884215D042F2002143
:100CC000C4F2010188420CD042F20011C4F20101C9
:100CD0008842E9D12168C90606D0A4F5827188420C
:100CE000E2D12168C906DFD450F8081F11F0405F37
:100CF000DAD14FF0804188E74FF60450CFF6FF700D
:100D0000205810F0405FCFD1A4F53F704FF08041E4
:100D10007BE7000090F83C10012904BF02207047D7
:100D2000B0B50121026880F83C109168002421F0E0
:100D3000010191609168C9074FF0000123D19168CA
:100D400021F480719160816B91F83520022A0BD1DA
:100D50000546084600F01EF840B12A6C01462846B8
:100D600042F040022A6403E0002101E0002128460D
:100D70000268536823F080635360026C41F20113F0
:100D80009A430132026480F83C40BDE8B040084616
:100D90007047000070B5866D044600F02FFB94F894
:100DA0003510022928D105462068216C026822F0FE
:100DB00016020260426922F08002426109B9A16C08
:100DC00019B1016821F008010160016821F00101F9
:100DD000016000BF20680068C00715D000F00EFB5E
:100DE000401B0628F6D320206065032084F83500D8
:100DF000002184F8341070BD80206065012000213E
:100E000084F8341070BD00BFE06D3F2101FA00F09E
:100E1000B060012084F835000020002184F83410EF
:100E200070BD0000F0B581B00021009140F20801D2
:100E3000C2F200010B68D0E9166148F2B5153768B7
:100E40000822C1F64E358A403A42A3FB05350CD044
:100E500003681C68640708D51C6824F004041C603F
:100E6000B260426D42F00102426501228A403A427C
:100E700008D003685B691B0604D5B260426D42F07E
:100E80000202426504228A403A4208D003681B6885
:100E90009B0704D5B260426D42F004024265102205
:100EA0008A403A4219D001680B681B0715D5B26019
:100EB0000B680A685B0309D4D20509D40A6822F0DA
:100EC00008020A60016C29B907E000BF110341D490
:100ED000016C11B1044688472046C26D202101FAF9
:100EE00002F33B4243D001680F68FF063FD5B36071
:100EF00090F835700B68052F1CD123F016030B609A
:100F00004B6923F080034B61036C0BB9836C1BB1FD
:100F10000B6823F008030B603F219140B160012171
:100F200080F83510016D0022002980F8342054D15A
:100F300058E000BF0A685B0310D4D20512D40A68D7
:100F400022F010020A60012180F83510002180F89B
:100F5000341007E0816C0029BCD1BEE7110301D435
:100F6000416C00E0C16B11B1044688472046416DD9
:100F7000C1B3416DC9072ED0052180F83510016835
:100F8000AA0A0B6823F001030B60009B0133934214
:100F900000931AD80B68DB0717D0009B01339342EC
:100FA000009312D80B68DB070FD0009B01339342EC
:100FB00000930AD80B68DB0707D0009B01339342EC
:100FC000009302D80B68DB07DFD1012180F83510D0
:100FD000002180F83410C16C21B101B0BDE8F040AF
:100FE000084700BF01B0F0BD2DE9F041044600F014
:100FF00005FAECB10546022084F83500002021688E
:1010000084F83400086820F001000860216808684E
:10101000C00711D000F0F2F9401B0528F6D90325CE
:1010200020230320636584F83550BDE8F08100BFBC
:101030000120BDE8F08100BF086848F23F02CFF20E
:101040001002D4E9013500EA020C04F10C0898E81A
:10105000C10143EA0C032B431843D4E9072E304364
:1010600038431043626A40EA0E00042A40EA08034B
:101070001CD1206BD4E90A2E40EA0E001843086008
:101080004869BEF1000F20F0030040EA020040F082
:10109000040C11D0B8F5005F36D0B8F1000F45D17F
:1010A000022A46D0012A3BD032B942E00B6048699F
:1010B00020F0070040EA020C01F0F8004AF6AB22EB
:1010C0001038CAF6AA22A0FB02231A0943F63033CD
:1010D000C1F814C0C0F600039A5C40F2FF335F28E9
:1010E0004FF03F0021EA030100FA02F088BF04310B
:1010F000C4E916128860002301250020636584F886
:101100003550BDE8F08100BF032AD5D80125402322
:101110000120DFE802F0030E030500BF82E700BFF5
:10112000AEF1C070B0FA80F0400904E0032A04D3A5
:10113000C2D1CEF300600028BED00125402301209B
:10114000636584F83550BDE8F081000090F834C044
:10115000BCF1010F04BF0220704770B54FF0010CC5
:1011600080F834C0D0F858E090F835C0BCF1010FD9
:1011700038D14FF0020C80F835C04FF0000CC0F8A9
:1011800054C0D0F800C08468056CC06DDCF8006005
:10119000402C26F48026CCF80060CCF804300B46B6
:1011A00004BF13460A463F2101FA00F0CCF808308C
:1011B000CCF80C20CEF80800DCF8000040F0160057
:1011C000CCF800002DB1DCF8000040F00800CCF8AD
:1011D0000000DCF8000040F00100CCF80000002026
:1011E00070BD00BF002180F83410022070BD0000E7
:1011F000B0B5044600F002F9054640F20000C2F224
:1012000000000078611C18BF044400BF00F0F6F82D
:10121000401BA042FAD3B0BD7047000043F6144112
:10122000C4F201010A68024214BF08607047FFF768
:10123000F3BF00002DE9F04F83B000F1200200F170
:101240003E4741F60005009207F1FF77C4F2020520
:1012500007224FEAB726A84208BF062200254FF012
:1012600000084FF00009062E38BF4FEAB72201925E
:101270000AE000BF09F1010908F10208B9F1100FF5
:1012800005F1040500F0A2800F68012202FA09FEB0
:1012900017EA0E0AEED0D1F804C003220CF00307BF
:1012A0007E1E02FA08F4012E6FEA040B12D884683D
:1012B000CE6804EA0B0406FA08F6344384604468F6
:1012C00024EA0E06CCF3001404FA09F4264346601F
:1012D00004E000BF032F01D103271EE0C6688C681D
:1012E00006EA0B0604FA08F42643022FC66014D15E
:1012F0006FF00302009E02EA590756F807C005F096
:101300001C040F220B69A2402CEA0202A3401A43DC
:10131000F251D1F804C00CF00307026807FA08F391
:1013200002EA0B021A431CF4403F0260A2D00022E2
:1013300043F644030292C4F202031A6843F60044DF
:1013400042F480421A601A68C4F2010402F4804236
:101350000292029A29F003024FF6084C2244CFF67B
:10136000FF7C52F80C3005F00C070F26BE40B3434B
:10137000019E06FA07F73B4342F80C30A2684B681F
:1013800042EA0A0743F60C4CDE0258BF22EA0A077B
:10139000A760C4F2010CDCF800209E0242EA0A07B2
:1013A00058BF22EA0A07CCF8007062689E0342EA3E
:1013B0000A0758BF22EA0A0767602268DB0342EA8D
:1013C0000A0758BF22EA0A07276053E703B0BDE8BF
:1013D000F08F00000069084018BF0120704700002E
:1013E000426902EA0103914341EA03418161704786
:1013F000002A08BF090481617047000041F2F460CF
:10140000C2F200000068704740F2000041F2F4614F
:10141000C2F20000C2F2000100780A6810440860BD
:101420007047000080B543F60040C4F20200016836
:1014300041F400710160016841F48061016001685C
:1014400041F480710160032000F086F8002000F074
:1014500005F800F027F8002080BD000070B540F2CC
:101460000006C2F2000640F208013278C2F2000122
:101470004FF47A730968B3FBF2F20446B1FBF2F160
:10148000084600F05DFF0F2C4FF0010508D838B971
:101490004FF0FF3021460022002500F031F8746043
:1014A000284670BD82B0002043F640010190C4F28E
:1014B00002014A6842F480424A604A6802F480426B
:1014C0000192019A0090086840F080500860086816
:1014D00000F080500090009802B07047002848BF8C
:1014E000704700F01F01012202FA01F11C2202EAFA
:1014F000D0004EF20012CEF2000281507047000080
:1015000010B54EF60C5CCEF2000CDCF80030C3F3E4
:10151000022E8EF00704042C28BF0424BEF103031E
:101520004FF0FF3E0EFA04F438BF0023A143994068
:101530000EFA03F39A43114300F00F0200F16043E7
:101540000901043A03F564436244002848BF02F1EC
:101550000C03197010BD00004EF60C51CEF20001C4
:101560000A684FF6FF031A4060F30A2242F08060D7
:1015700040F0FD700860704701220168C0F8D8246F
:10158000002280F8CC24886940F000608861486DB2
:1015900040F0805040F0030200204A657047000090
:1015A000002804BF01207047F0B581B004460568EB
:1015B00090F8950428B9002084F89404204600F09F
:1015C0002DF90320B5F1A04F84F8950404BF002045
:1015D000A071206802F056F894E80F00267C00966F
:1015E00001F0DCFC002840F000812068002102F0BE
:1015F00051F8002840F0F98094F804E0BEF1000FA3
:1016000000F0EC800EF0030CBEF1040F4FF000026E
:1016100040D30EF0FC03A4F190000321012500BF8C
:10162000CE1E80F8A460A0F8BE608E1E80F8C86050
:10163000A0F8E2604E1E80F8EC60A0F8066180F829
:101640001011A0F82A110E1D013180F8A55080F864
:10165000A820C0E92B22C0F8B42080F8C95080F837
:10166000CC20C0E93422C0F8D82080F8ED5080F8B2
:10167000F020C0E93D22C0F8FC2080F8115180F82C
:101680001421C0E94622C0F8202190309942314609
:10169000C6D1F21EBCF1000F31D004F1140002EBF0
:1016A000C20100EB8105012300F821200021BCF1DB
:1016B000010F6B706A832971C5E9021129611ED07F
:1016C000551C05EBC50600EB8607BCF1020F7B70CD
:1016D00000F826507D833971C7E9021139610ED0B7
:1016E000911C01EBC10200EB8203012500F82210DE
:1016F00000205D7059831871C3E902001861BEF1C2
:10170000000F6BD0BEF1040F4FF0000236D30EF085
:10171000FC000321234600BFCF1E83F854728F1EA6
:1017200083F878724F1E83F8C0120D1D013183F8C3
:10173000552283F85822C3E99722C3F8642283F81C
:10174000792283F87C22C3E9A022C3F8882283F897
:101750009D2283F89C7283F8A022C3E9A922C3F8D2
:10176000AC2283F8C12283F8C422C3E9B222C3F8B1
:10177000D022903381422946CED1EA1EBCF1000F1F
:101780002CD004F5157002EBC20300EB8307002197
:10179000BCF1010F797000F823203971C7E90211FB
:1017A00039611BD0531C03EBC30700EB8706BCF168
:1017B000020F717000F827303171C6E902113161F2
:1017C0000CD0911C01EBC10200EB820300275F707B
:1017D00000F822101F71C3E902771F6194E80F001F
:1017E000277C009701F0F4FC30B1022084F89504C6
:1017F000012001B0F0BD00BF00206074012084F81A
:101800009504207B012802D12046FFF7B5FE206811
:1018100001F0CEFC002001B0F0BD0000F0B59DB09D
:10182000044600201C90CDE91A00CDE9180001A85B
:1018300004305821FEF76FFE2068B0F1A04F01D0B0
:101840001DB0F0BD4FF48070019001A800F03EF88B
:10185000002818BFFEF79EFF002743F630060097CA
:10186000C4F202063068002440F0010030603068A5
:10187000C4F2020400F00100009000984FF4E85018
:1018800018900220CDE9190703201B900A2018ADFB
:101890001C9020462946FFF7CDFC4FF40070CDE99F
:1018A0001807204629461A97FFF7C4FC706840F0D5
:1018B000800070600097706940F4804070617069CA
:1018C00000F48040009000981DB0F0BD2DE9F04379
:1018D00081B00446006843F68C06C107C4F20206D4
:1018E00004D14FF0000981070CD415E03168A26BD8
:1018F00021F0C06111433160B2FA82F14FEA51190F
:10190000810709D53168E26B21F0C0511143316084
:10191000002A08BF4FF00109410705D44FF0000825
:10192000010712D420E000BF3168226B21F440117E
:1019300011433160B2FA82F14FEA5118B2F5801FBB
:1019400008BF4FF0010901070ED53168626B21F421
:1019500040011143B2F5800F316008BF4FF001091B
:10196000002A08BF4FF0010881065AD500200090D8
:1019700056F84C0C47F2000740F0805046F84C0CEB
:1019800056F84C0CC4F2000700F08050009000980C
:10199000386840F480703860FFF730FD054600BFBE
:1019A0003868C00506D4FFF729FD401B0228F7D987
:1019B00090E100BF56F81C0C10F4407017D0216C59
:1019C00001F44071884212D056F81C0C40F6406178
:1019D000C4F24721012220F440700A6000220A600C
:1019E00046F81C0C56F81C0CC00740F07B812068A0
:1019F000216C56F8842C4FF6FF4701F4407322F413
:101A0000F812C0F6FF770F40B3F5407F08BF3A43A6
:101A100046F8842C56F81C2C6FF31F31114346F8FE
:101A20001C1CC10610D4010619D441061FD4C105DF
:101A300025D4810530D4410536D4B9F1010F18BF42
:101A4000B0F5006F3CD062E094F8580040F6406179
:101A5000C4F24721C1F8A00320680106E5D5B168AA
:101A6000E26C21F440011143B1604106DFD5B16859
:101A7000A26C21F080611143B160C105D9D5B16874
:101A8000626D21F000611143B160B2F1006F08BFD7
:101A90004FF001088105CED5B168626C21F080510C
:101AA0001143B1604105C8D5B268216D22F00052E2
:101AB0000A43B0F5006FB26018BFB1F1005F23D1E7
:101AC00040F26809C4F247290020C9F80000FFF776
:101AD00095FC054656F88C0C000105D5FFF78EFCE9
:101AE000401B0228F6D9F5E02068C10702D0A16B9F
:101AF00000296FD0810702D5E16B00296AD0410728
:101B000000F17D807FE000BFB9F1010FD8D0B8F1BE
:101B1000000F4FF0000000F0DE806827C4F2472776
:101B2000B860FFF76BFC054656F88C0C800005D5B5
:101B3000FFF764FC401B0228F6D9CBE02068410780
:101B400001D5216B19B101071AD5616BC1B956F8DE
:101B5000041CD4E9062301F44031656A114341EACB
:101B6000831141EA0561D4F82CC046F8041C3168A1
:101B70006FF0FF0221F4F85102EB0C2211433160A7
:101B8000C00516D5606DB0F1006F12D156F8040C87
:101B9000226AD4E9061300F07060D2034FF6FF7595
:101BA000AA430843A2F5803240EA8310104346F866
:101BB000040C0120B860FFF721FC044656F88C0C99
:101BC000800000F18B80FFF719FC001B0328F5D380
:101BD00080E000BF56F8081C56F8082CD4E90135FF
:101BE00001F4403102F0706219436769114341EA20
:101BF000851141EA077146F8081C410703D5216B9E
:101C0000B1F5801F05D001071FD5616BB1F5800FBD
:101C10001BD156F8081C56F8082CD4E9013701F4FA
:101C2000403102F0E04219432569114341EA87112E
:101C300041EA0561D4F828C046F8081C3168ACF1C7
:101C4000010221F01F011143316041051FD5216DB3
:101C5000B1F1005F1BD1271D56F808CC56F8082CAF
:101C6000A8CFFF034FF6FF7127EA01014FF0C067CD
:101C700002F0E04207EA4C2707F100771A433A43A3
:101C8000A1F5803142EA8512114346F8081C00058F
:101C900010D5271D8FCF40EA8110D1034FF6FF7278
:101CA0009143A1F5803140EA0360084340EA0770A0
:101CB00046F8080C0120C9F80000FFF79FFB054615
:101CC00056F88C0C00013FF522AFFFF797FB401B45
:101CD0000228F5D9032001B0BDE8F083002001B04F
:101CE000BDE8F083FFF78AFB054641F2883700BF65
:101CF00056F81C0C80073FF57AAEFFF77FFB401BC0
:101D0000B8424FF00300F3D9E5E70000002804BF14
:101D1000012070472DE9F04143F60808C4F202089B
:101D20000446D8F8F8030D4600F00F00884207D2A9
:101D300088F8F853D8F8F80300F00F00A84277D1DC
:101D40002068810717D5410705D5D8F8001041F460
:101D5000E051C8F80010010705D5D8F8001041F48B
:101D60006041C8F80010D8F80010A26821F0F00116
:101D70001143C8F80010C00740D1D8F8F80300F0AC
:101D80000F00A84207D988F8F853D8F8F80300F0F4
:101D90000F00A8424CD12068410707D5D8F80010A1
:101DA000E26821F4E0511143C8F80010000708D59B
:101DB000D8F80000216920F4604040EAC100C8F86A
:101DC000000000F07DF8D8F8001043F61832C1F397
:101DD0000311C0F60002515C40F2080220FA01F142
:101DE00040F20400C2F200000068C2F2000211607A
:101DF000FFF734FB0020BDE8F08100BF6068811E62
:101E0000022907D258F8081C89015CBF0120BDE8EF
:101E1000F08111E0012807D158F8081C89035CBF44
:101E20000120BDE8F08107E058F8081C890703D4B9
:101E30000120BDE8F08100BFD8F8001021F00301B7
:101E40000843C8F80000FFF7D9FA064641F2883780
:101E5000D8F80000616800F00C00B0EB810F8CD066
:101E6000FFF7CCFA801BB842F2D90320BDE8F0811D
:101E700040F2080043F60801C2F20000C4F2020179
:101E80000068096843F62832C1F38221C0F60002D7
:101E9000515CC8407047000040F2080043F608015A
:101EA000C2F20000C4F202010068096843F6283259
:101EB000C1F34231C0F60002515CC84070470000D7
:101EC00010B543F60404C4F202046068C0F3810153
:101ED00042F20040C0F2F400DFE801F042020818CC
:101EE00041F20020C0F27A0010BD00BF216801F06D
:101EF0003F02216823684902C3F3881116D4A1FB6D
:101F000000010023FEF7ECF917E000BF216801F0A3
:101F10003F02216823684902C3F3881114D4A1FB4E
:101F200000010023FEF7DCF915E000BF41F20020BC
:101F3000C0F27A004843B0FBF2F021680222C1F3FC
:101F4000014102EB410109E041F20020C0F27A00B8
:101F50004843B0FBF2F02168C1F30271B0FBF1F02D
:101F600010BD0000002804BF012070472DE9F0419A
:101F700082B00446007843F60006C007C4F20206A9
:101F80000CD0B06800F00C00042840F08980306864
:101F9000800303D56068002800F050812078800716
:101FA00023D5B06810F00C0F11D0B06800F00C0011
:101FB000082802D17068400209D5B06800F00C0012
:101FC0000C2840F09F807068400200F19B803068D0
:101FD000800703D5E068012840F03081306821692E
:101FE00020F0F80040EAC10030602078000713D4E8
:101FF000207840072AD4A569002D00F01A81B06826
:1020000000F00C00082840F0AB80012D40F0E88083
:10201000012002B0BDE8F0816069002840F20000B4
:10202000C4F2472000F088800121C0F8801EFFF72D
:10203000E5F90546706F8007DAD4FFF7DFF9401B3A
:102040000228F7D9032002B0BDE8F081306C5FEAC6
:10205000C0080AD400200190306C40F080503064F9
:10206000306C00F080500190019847F20007C4F2F4
:1020700000073868C00537D4386840F4807038608D
:10208000FFF7BCF9054600BF3868C0052CD4FFF740
:10209000B5F9401B0228F7D9032002B0BDE8F08152
:1020A000B06800F00C00082803D1706840023FF5CA
:1020B0006EAFB06800F00C000C2803D170684002CD
:1020C0003FF565AF61683068B1F5803F07D0B1F585
:1020D000A02F40F0CB8040F480203060306840F486
:1020E00080303060CBE000BFA168306F012905D09F
:1020F000052957D140F004003067306F40F00100EF
:10210000306759E0E068002800F09C800020C4F2AD
:10211000472001210160FFF771F90546306880070B
:102120003FF55CAFFFF76AF9401B02284FF0030050
:10213000F4D902B0BDE8F0810021C0F8801EFFF79D
:102140005DF90546706F80077FF552AFFFF756F9CE
:10215000401B0228F6D9032002B0BDE8F08100BF81
:102160000027C4F2472700203866FFF747F9022D01
:1021700005460BD13068800140F19280FFF73EF9AF
:10218000401B02284FF00300F4D9D2E730688001E9
:102190004FD5FFF733F9401B02284FF00300F5D964
:1021A000C7E700BF20F001003067306F002920F042
:1021B0000400306700F09880FFF720F9054641F2EF
:1021C000883700BF306F800700F1A080FFF716F955
:1021D000401BB842F6D9032002B0BDE8F08100BF31
:1021E0007068E16900F480028A4227D1216A00F018
:1021F0003F028A4222D147F6C071626A0140B1EBC8
:10220000821F1BD1A16A4FF6FF73C903994300F4E3
:102210004032A1F580318A4210D1E16A00F070624B
:10222000B2EB016F0AD1216B00F0E040B0EB017F0F
:1022300004D1002002B0BDE8F08100BF012002B04F
:10224000BDE8F0810020C4F2472000210160FFF7C3
:10225000D5F80546306880077FF5C7AEFFF7CEF8A2
:10226000401B02284FF00300F4D962E720F48030CD
:1022700030603068002920F48020306050D0FFF7B3
:10228000BDF80546306880033FF588AEFFF7B6F825
:10229000401B6428F6D9032002B0BDE8F08100BFDE
:1022A00004F11C052FCD246B084340EA8210D903AA
:1022B0004FF6FF729143A1F5803140EA0560084373
:1022C00040EA0470706001203866FFF797F8044612
:1022D00030688001ADD4FFF791F8001B02284FF061
:1022E0000300F5D925E700BFFFF788F8054641F25E
:1022F000883700BF306F800708D5FFF77FF8401B95
:10230000B8424FF00300F5D913E700BFB8F1000F52
:102310003FF571AE306C20F0805030646BE600BF4A
:10232000FFF76CF8054600BF306880037FF536AED6
:10233000FFF764F8401B64284FF00300F4D9F8E677
:10234000411E0020B0EB116F1CBF012070474EF200
:102350001002CEF2000251604EF62351CEF200017F
:10236000F0230B70072190601160704790F83C20BB
:10237000012A4FF0020254D010B580F83D200268C7
:10238000D2F804E0D2F808C00C682EF070032343A2
:1023900041F2FF74C4F20004A24253600EDC40F22A
:1023A000FF73C4F200039A4216DCB2F1804F2BD0C7
:1023B00040F20043C4F2000324E000BF40F2FF33C8
:1023C000C4F201039A4213DC41F60003C4F2000395
:1023D0009A4219D0002313E040F60003C4F2000330
:1023E0009A4211D040F60043C4F200030AE000BF55
:1023F00044F20003C4F201039A4205D040F20043C4
:10240000C4F201039A4204D149682CF080031943B5
:1024100091600121002280F83D1080F83C20BDE849
:102420001040104670470000002804BF012070478C
:1024300010B5044690F83D0028B9002084F83C000F
:10244000204600F01FF8022084F83D002068211D7E
:1024500000F08EFC012084F8460084F83E0084F8E9
:102460003F0084F8400084F8410084F8420084F87A
:10247000430084F8440084F8450084F83D000020BF
:1024800010BD00000068B0F1804F18BF704781B0E8
:102490000020009043F64000C4F20200016841F0C1
:1024A00001010160006800F001000090009801B097
:1024B0007047000090F83D1001291CBF01207047B3
:1024C000022180F83D10006841F2FF71C4F2000162
:1024D00088420DDC40F2FF71C4F20001884215DC35
:1024E000B0F1804F2AD040F20041C4F2000123E055
:1024F00040F2FF31C4F20101884213DC41F60001D1
:10250000C4F20001884219D0002113E040F6000116
:10251000C4F20001884211D040F60041C4F200012B
:102520000AE000BF44F20001C4F20101884205D074
:1025300040F20041C4F20101884206D1816801F0F5
:102540000701062904BF00207047016841F001011E
:1025500001600020704700000146006841F211133D
:10256000026A1A4204D00122002081F83D207047FF
:10257000026A40F244431A42F5D1026822F0010295
:1025800002600122002081F83D20704790F83C2035
:10259000012A4FF002026CD080B580F83D20D0F8BF
:1025A00000C04FF67772DCF8083023EA0202CCF85C
:1025B00008200B684F2B29DC1F2B45DD202B46D034
:1025C000302B44D0402B40F0AF80D1F804E0C968F4
:1025D000DCF82030DCF8202022F00102CCF82020AA
:1025E000DCF8182022F0F00242EA011123F00A027E
:1025F00042EA0E02CCF81810CCF82020DCF80810C3
:1026000041F0470121F0300128E000BF6F2B33DD9E
:10261000B3F5005F74D0B3F5805F21D0702B40F02C
:102620008380D1E901E3C968DCF8082043EA0E039E
:1026300022F47F4243EA01211143CCF80810DCF870
:10264000081041F0770109E00BB1102B6CD1DCF8D8
:10265000081021F07001194341F00701CCF808106F
:102660000022012180F83D10002180F83C10BDE8D7
:1026700080401046704700BF502B21D0602B53D1B3
:10268000D1F804E0C968DCF82030DCF8202022F022
:102690001002CCF82020DCF8182022F4704242EA24
:1026A000013123F0A00242EA0E12CCF81810CCF847
:1026B0002020DCF8081041F0670121F01001CDE77F
:1026C000D1F804E0C968DCF82030DCF8202022F0E2
:1026D0000102CCF82020DCF8182022F0F00242EAB7
:1026E000011123F00A0242EA0E02CCF81810CCF8CD
:1026F0002020DCF8081041F0570121F02001ADE75F
:10270000D1E901E3C968DCF8082043EA0E0322F4AA
:102710007F4243EA01211143CCF80810DCF808108D
:1027200041F480419AE700BF01229AE7002804BFE4
:102730000120704710B5044690F8410028B90020E8
:1027400084F84000204600F021F8242084F841005D
:102750002068C16821F40051C160204600F0AAFB46
:102760002068016921F490410161416921F02A0149
:102770004161C16841F40051C160002020216064C2
:1027800084F8411084F84210606310BD80B586B0B3
:1027900044F600010068C4F200010022884205925C
:1027A000CDE903220292019202D006B080BD00BFA3
:1027B00043F630000092C4F20200036943F4802320
:1027C0000361036903F480230093009B0092036874
:1027D00043F008030360006800F0080000900098D0
:1027E0004FF4407001900220CDE9020203200490D2
:1027F0000720059001F5E23001A9FEF71BFD06B0A8
:1028000080BD00002DE9F04381B0044690F84100FE
:10281000202809D100294FF0010018BF002A07D154
:1028200001B0BDE8F08300BF022001B0BDE8F08335
:102830000020606421201D460E4684F841001746A2
:10284000FEF7DCFDA784E784A1688146B1F5805FCF
:1028500002D1206900285DD037460020E28C216833
:10286000002A5DD06A1C24D0002D4AD0804600BFCB
:102870000868000608D4FEF7C1FDA0EB0900A842D5
:102880007AD82168C868F3E717B117F8010B04E09C
:1028900038F8020B00276FF35F204860E08C0138A6
:1028A000E084E08C0028E3D13AE000BF0A68120619
:1028B00009D40A68120606D40A6812065CBF0A68C0
:1028C0005FEA0262F2D51FB117F8012B05E000BFE5
:1028D00030F8022B00276FF35F224A60E28C013A46
:1028E000E284E28C002AE4D11AE000BF30F8022B27
:1028F00000276FF35F224A60E28C013AE284E28CA7
:1029000072B10A68120635D5002FEFD017F8012BE7
:10291000F1E700BF00273046E28C2168002AA1D1F0
:10292000086840061ED42DB3681C14D10868400600
:102930002AD40868400627D40868400624D40868CA
:1029400040064FF00000F1D50DE000BF2068C168DF
:102950000068400618D4FEF751FDA0EB0900A8421C
:10296000F4D909E00020202184F8411001B0BDE82D
:10297000F08300BFFEF742FD0320202184F84110C0
:1029800001B0BDE8F08300BF0020202184F8411091
:1029900001B0BDE8F0830000FEE70000B0B584B0F0
:1029A00040F27400C2F2000042F200014FF0805386
:1029B0004FF0C0650024C4F20101C0E90A530125AB
:1029C00003944FF48032047680F82040C56180F88B
:1029D000305080E81600C0E903444561FDF7B2FFBE
:1029E00010B172B6FEE700BF40F27400C2F2000000
:1029F0006946CDE900450294FDF7D0FE10B172B6EC
:102A0000FEE700BF04B0B0BD80B582B000200190E9
:102A100043F63000C4F202000168002241F4800154
:102A200001600068002100F48000019001983820C6
:102A3000FEF766FD382002B0BDE88040FEF74EBDCF
:102A40002DE9F04F87B0002443F630000694CDE91D
:102A50000444CDE902440194C4F20200016840F646
:102A6000000841F0040101600168C4F2020801F0AD
:102A700004010191019901940168A8F5806741F072
:102A8000800101600168002201F08001019101993B
:102A90000194016844F2810A41F002010160016879
:102AA00001F00201019101990194016841F00801CE
:102AB0000160016801F00801019101990194016828
:102AC00041F040010160016801F04001019101996C
:102AD0000194016841F001010160006844F2810144
:102AE00000F00100019001983846FEF781FC08F5DE
:102AF00080552846402100224FF0400BFEF778FC1D
:102B000040464FF470610022FEF772FC4FF4005013
:102B100002AE02904FF4881940463146CDE9039445
:102B2000FEF788FBCDF808A04FF0010A3846314681
:102B3000CDE903A40594FEF77DFB28463146CDE997
:102B400002BACDE90444FEF775FB8020CDE902040A
:102B5000284631460494FEF76DFB4FF47060CDE9D2
:102B6000020A40463146CDE90444FEF763FBF020FB
:102B7000CDE902090220049008F580603146FEF795
:102B800059FB0A2000210022FEF7BAFC0A20FEF7BA
:102B9000A5FC172000210022FEF7B2FC1720FEF74B
:102BA0009DFC282000210022FEF7AAFC2820FEF729
:102BB00095FC07B0BDE8F08F80B586B0202000906E
:102BC00041F200600021C2F200004FF080420F236A
:102BD0000591CDE903110191C0E90021C0E902137B
:102BE00001618161FFF720FC10B172B6FEE700BF02
:102BF0004FF48050029041F20060C2F2000002A93E
:102C0000FFF7C4FC10B172B6FEE700BF41F20060EE
:102C1000C2F200006946FFF7A9FB18B172B600BF07
:102C2000FEE700BF06B080BD80B541F2486044F6C3
:102C30000001C2F20000C4F2000100234FF00C0CAE
:102C40004FF4E13280E80E00C0E90333C0E905C368
:102C5000C361FFF76BFD002808BF80BD72B600BFDF
:102C6000FEE7000080B541F21C10C2F200004FF0F8
:102C7000A0410160062101714FF40071C1804FF441
:102C80008171C0F809100121C181FEF789FC00287B
:102C900008BF80BD72B600BFFEE70000FEE700007F
:102CA000FEE700007047000070470000FEF7ACBB75
:102CB00070B594B007AC20463421FDF72CFC0025FC
:102CC00043F640000695CDE90455CDE9025501953E
:102CD000C4F202000168022641F0805101600068E0
:102CE00000F080500190019847F200000195C4F275
:102CF0000000016841F440410160006800F4404078
:102D000001900198012007904FF4A02008904FF403
:102D100080000E9004200F90A820CDE91006072017
:102D2000CDE9120620460D96FFF71CF910B172B6D8
:102D3000FEE700BF0F20CDE902064FF4A05005903A
:102D40004FF48050069002A805210495FEF7DEFF9F
:102D500010B172B6FEE700BF14B070BD4EF68850D9
:102D6000CEF20000016841F470010160704700007C
:102D700010B540F6FF3E0368C4F2000E40F2004C6E
:102D80007045C4F2010C25DCB0F1804F2FD040F229
:102D90000042C4F20002904229D040F60002C4F280
:102DA0000002904223D041F6FF72C4F2000290422A
:102DB00027DC70453ADCB0F1804F5BD040F2004236
:102DC000C4F20002904255D040F60002C4F2000264
:102DD0004EE000BF40F60042C4F20002904206D02E
:102DE000604504D00022C4F201029042DBD14A685F
:102DF00023F07003134341F6FF72C4F200029042C5
:102E0000D7DD43F6FF72C4F20102904220DC42F2A9
:102E10000002C4F2000290422CD00022C4F201024F
:102E2000904227D0604525D028E000BF40F6004200
:102E3000C4F2000290421DD041F60002C4F200022A
:102E4000904217D041F60042C4F2000210E000BFE9
:102E500044F20002C4F2010290420BD044F6000298
:102E6000C4F20102904205D044F20042C4F20102D1
:102E7000904203D1CA6823F44073134323F08002C5
:102E80004B69D1F800E08C681A430260C46240F4D8
:102E90008062C0F828E0624504BF0969016301212E
:102EA00041610169C90708BF10BD016921F0010135
:102EB000016110BDB0B50446006804F108030ECBF3
:102EC0000569194325F440552A4302616269E369A3
:102ED0001143C268194349F20C639A431143C1601C
:102EE0004169A26921F4407141F20043114340F469
:102EF0008062C4F201039A42416103D1FEF7CCFF24
:102F000002E000BFFEF7B4FFE1694FF69C7563680D
:102F10001922C0F6FF75B1F5004FA0FB02011FD1C9
:102F20005A00DB0FFDF7DCF948F21F51C5F2EB1137
:102F3000A0FB01235A0905F1805302FB0300322351
:102F400003EBC000A0FB01014FF4F87000EA111080
:102F500000EB0210C1F34211084421688860B0BD43
:102F60009A009B0FFDF7BCF948F21F51C5F2EB1117
:102F7000A0FB01235A0902FB0500322303EB0010DA
:102F8000A0FB0101F02000EA511000EB0210C1F398
:102F90004311084421688860B0BD000082B002F48B
:102FA0007F42B2F5807F40F07F80826B4FF6BF7327
:102FB00022F480328263C268CFF6BD731A40C260C9
:102FC000029BC268DBB222F44012012BC26003D123
:102FD000C26842F48012C26000220092009A01325C
:102FE0000092009AB2F1706F00F2BE800269002A6E
:102FF00021D4009A01320092009AB2F1706F00F26F
:10300000B3800269002A16D4009A01320092009A15
:10301000B2F1706F00F2A8800269002A0BD4009A06
:1030200001320092009AB2F1706F00F29D80026945
:10303000B2F1FF3FD2DC00220092026942F00102AD
:103040000261009A01320092009AB2F1706F00F2B0
:103050008B800269D2071ED0009A01320092009A3A
:10306000B2F1706F00F280800269D20713D0009A2B
:1030700001320092009AB2F1706F75D80269D207DE
:1030800009D0009A01320092009AB2F1706F6BD8A9
:103090000269D207D5D14FF0000C01F47F01B1F5E0
:1030A000803F40F0818077E0C26842F04002C26019
:1030B00000220192019A01320192019AB2F1706FDD
:1030C0005AD80269002A1ED4019A01320192019A4B
:1030D000B2F1706F50D80269002A14D4019A0132FB
:1030E0000192019AB2F1706F46D80269002A0AD49F
:1030F000019A01320192019AB2F1706F3CD80269D3
:10310000B2F1FF3FD6DC00220192026942F00102D7
:103110000261019A01320192019AB2F1706F2BD8CB
:103120000269D2071DD0019A01320192019AB2F1CF
:10313000706F21D80269D20713D0019A013201922F
:10314000019AB2F1706F17D80269D20709D0019ABB
:1031500001320192019AB2F1706F0DD80269D20763
:10316000D7D14FF0000C09E04FF0030C01F47F01C0
:10317000B1F5803F18D10FE04FF0030C826B13F4D0
:103180007F4F14BF22F4803242F48032826301F414
:103190007F01B1F5803F07D1816841F00601816070
:1031A000816841F020018160604602B070470000F4
:1031B0000146D0F8000E20F00300C1F8000ED1F84F
:1031C000040840F002020020C1F804287047000003
:1031D0002DE9F04F86B0C3F3074516468E46002111
:1031E000C0F80411C0F80811C0F80C11C0F8101193
:1031F000C0F81411C0F81811C0F81C11C0F8201143
:10320000C0F82411C0F82811C0F82C11C0F83011F2
:10321000C0F83411C0F83811C0F83C1125B100F1E4
:1032200038014FF400120FE0D0F80418802241F06A
:103230000201C0F80418816B21F400118163016858
:1032400041F04001016001460B681A430A6006F430
:103250007F420021B2F5807FC0F8001E08D1D0F86F
:103260000028B1EB1E6F09D1C0F800280AE000BFAA
:10327000D0F8001841F0030102E000BF42F0010164
:10328000C0F80018002104910499013104910499B7
:10329000B1F1706F52D8016900291ED4049901312F
:1032A00004910499B1F1706F48D80169002914D4D0
:1032B0000499013104910499B1F1706F3ED801690C
:1032C00000290AD40499013104910499B1F1706F75
:1032D00034D80169B1F1FF3FD6DC002104914FF4ED
:1032E000846101610499013104910499B1F1706F15
:1032F00024D8016989061DD50499013104910499E6
:10330000B1F1706F1AD80169890613D5049901319A
:1033100004910499B1F1706F10D80169890609D53B
:103320000499013104910499B1F1706F06D80169D3
:103330008906D7D44FF0000A02E000BF4FF0010A1F
:10334000002105910599013105910599B1F1706F41
:103350004ED8016900291ED40599013105910599BE
:10336000B1F1706F44D80169002914D40599013175
:1033700005910599B1F1706F3AD8016900290AD415
:103380000599013105910599B1F1706F30D8016946
:10339000B1F1FF3FD6DC00210591102101610599B3
:1033A000013105910599B1F1706F21D80169C90604
:1033B00020D50599013105910599B1F1706F17D8A4
:1033C0000169C90616D50599013105910599B1F133
:1033D000706F0DD80169C9060CD5059901310591A9
:1033E0000599B1F1706F03D80169C906D7D401E01E
:1033F0004FF0010A5FFA8EF94FF00008B9F1000FA3
:10340000C0F81088C0F81488C0F81C8800F00D813E
:10341000CDF80CA0CDE9015ED0F800194FF00064A2
:1034200004EA11114FF67F35B9F1010BC0F800190C
:10343000C0F81089C0F8085974D0A9F10201032915
:103440000BF0030A04D20121BAF1000F40D169E068
:1034500000962BF0030700F5186600234FF0904C00
:103460004FF67F324FF0000E56F8601C0EF1040E3E
:103470000CEAE17146F8601C46F8503C46F8582CBE
:1034800056F8401C77450CEAE17146F8401C46F8B6
:10349000303C46F8382C56F8201C0CEAE17146F80E
:1034A000201C46F8103C46F8182C31680CEAE171F3
:1034B00031603361B26006F18006D5D1009E0EF115
:1034C00001014FF67F354FF00064BAF1000F29D0AB
:1034D00000F510634F01B446DE594FF0904202EA06
:1034E000E67603EB4111DE51664600274FF67F3347
:1034F000BAF1010F0F618B6014D00E6ABAF1020F9E
:1035000002EAE67266460A620F638B620AD00A6CB0
:103510004FF0904303EAE2720A6400220A654FF614
:103520007F328A64D0F8001BBBF1000F04EA11114E
:10353000C0F8001B4FF00001C0F8101BC0F8085B7A
:10354000DDE9015EDDF80CA06FD0A9F102010329CD
:103550000BF0030C04D20121BCF1000F3BD164E05D
:10356000A94600962BF0030500F5386600234FF0BE
:1035700090474FF67F32002156F8604C043107EA3D
:10358000E47446F8604C46F8503C46F8582C56F81F
:10359000404C8D4207EAE47446F8404C46F8303C13
:1035A00046F8382C56F8204C07EAE47446F8204CCC
:1035B00046F8103C46F8182C346807EAE474346086
:1035C0003361B26006F18006D6D1009E01314D46CE
:1035D000BCF1000F29D000F530634F013446DE59AD
:1035E0004FF0904202EAE67603EB4111DE512646A7
:1035F00000274FF67F33BCF1010F0F618B6014D0B1
:103600000E6ABCF1020F02EAE67226460A620F63F6
:103610008B620AD00A6C4FF0904303EAE2720A64AC
:1036200000220A654FF67F328A64D0F810181EF423
:103630007F0F21F48071C0F810186FF08041C0F83E
:103640001880416103D1816941F010018161816974
:1036500043F60002C8F23C02114316F47F0F816169
:1036600003D0816941F008018161012D05D1816993
:1036700041F0804141F004018161504606B0BDE84F
:10368000F08F00000146806820F0010200208A606F
:1036900070470000B0B50446C068002920F0C04063
:1036A000E06000F09980012940F0B080E0680A25D0
:1036B00040F00050E0600A20FDF79AFD54F8140F26
:1036C000C00740F09C800A20FDF792FD2068C007EB
:1036D00040F09E800A20FDF78BFD2068C00740F077
:1036E000A5800A20FDF784FD2068C00740F0AC806B
:1036F0000A20FDF77DFD2068C00740F0B3800A2056
:10370000FDF776FD2068C00740F0BA800A20FDF77B
:103710006FFD2068C00740F0C1800A20FDF768FDFA
:103720002068C00740F0C8800A20FDF761FD2068CE
:10373000C00740F0CF800A20FDF75AFD2068C0077F
:1037400040F0D6800A20FDF753FD2068C00740F006
:10375000DD800A20FDF74CFD2068C00740F0E480C2
:103760000A20FDF745FD2068C00740F0EB800A20E5
:10377000FDF73EFD2068C00740F0F2800A20FDF70B
:1037800037FD2068C00740F0F9800A20FDF730FDC2
:103790002068C00740F000810A20FDF729FD20685D
:1037A000C00740F007810A20FDF722FD2068C0070E
:1037B00040F00E810A20FDF71BFD2068C00740F095
:1037C00016810A20FDF714FD2068C825A5F1C80060
:1037D000B0FA80F04009B0BDE0680A2540F08040B2
:1037E000E0600A20FDF704FD54F8140FC00706D06E
:1037F0000A20FDF7FDFC2068C00711D11425A5F1B2
:10380000C800B0FA80F04009B0BD00BF0120B0BDD3
:103810001425A5F1C800B0FA80F04009B0BD00BF82
:103820000A20FDF7E5FC2068C00707D11E25A5F199
:10383000C800B0FA80F04009B0BD00BF0A20FDF713
:10384000D7FC2068C00707D12825A5F1C800B0FA29
:1038500080F04009B0BD00BF0A20FDF7C9FC206818
:10386000C00707D13225A5F1C800B0FA80F04009A1
:10387000B0BD00BF0A20FDF7BBFC2068C00707D120
:103880003C25A5F1C800B0FA80F04009B0BD00BFEA
:103890000A20FDF7ADFC2068C00707D14625A5F139
:1038A000C800B0FA80F04009B0BD00BF0A20FDF7A3
:1038B0009FFC2068C00707D15025A5F1C800B0FAC9
:1038C00080F04009B0BD00BF0A20FDF791FC2068E0
:1038D000C00707D15A25A5F1C800B0FA80F0400909
:1038E000B0BD00BF0A20FDF783FC2068C00707D1E8
:1038F0006425A5F1C800B0FA80F04009B0BD00BF52
:103900000A20FDF775FC2068C00707D16E25A5F1D8
:10391000C800B0FA80F04009B0BD00BF0A20FDF732
:1039200067FC2068C00707D17825A5F1C800B0FA68
:1039300080F04009B0BD00BF0A20FDF759FC2068A7
:10394000C00707D18225A5F1C800B0FA80F0400970
:10395000B0BD00BF0A20FDF74BFC2068C00707D1AF
:103960008C25A5F1C800B0FA80F04009B0BD00BFB9
:103970000A20FDF73DFC2068C00707D19625A5F178
:10398000C800B0FA80F04009B0BD00BF0A20FDF7C2
:103990002FFC2068C00707D1A025A5F1C800B0FA08
:1039A00080F04009B0BD00BF0A20FDF721FC20686F
:1039B000C00707D1AA25A5F1C800B0FA80F04009D8
:1039C000B0BD00BF0A20FDF713FC2068C00707D177
:1039D000B425A5F1C800B0FA80F04009B0BD00BF21
:1039E0000A20FDF705FC2068C0077FF4EAAEBE257B
:1039F000A5F1C800B0FA80F04009B0BDFEE70000B4
:103A000040F20049C4F20209FDF70CFDFFF750F93E
:103A1000FFF716F8FEF7F8FFFFF706F9FFF722F9B0
:103A2000FEF7BCFFFFF7C8F840F27008C2F20008CA
:103A300040F2BC0741F2906609F5806BC2F20007C4
:103A4000C2F2000622A408F1040A00BF48464FF45F
:103A50008041FDF7C5FC6420FDF7CAFB58464FF4D2
:103A60000051FDF7B7FC90B148468021FDF7B8FC46
:103A70006420FDF7BDFB504639464FF40062FDF768
:103A800075F841F20060C2F20000FEF713FD98F8ED
:103A900000000128DAD10025404600F8045BFDF75C
:103AA00039F941F20060C2F20000FEF755FD00BF97
:103AB00037F81530304621462A46FCF789FC304657
:103AC00000F00EF80135B5F5006FF1D1BEE700BF8B
:103AD0004144435B25645D203D2025750D0A0000AF
:103AE00010B50446FCF7F8FC82B241F24860C2F21D
:103AF000000021466423BDE81040FEF783BEF1EECE
:103B0000100A4FF6FF71C0F2C03120EA010040F008
:103B10004070E1EE100A7047000000000000000055
:103B20000102030406070809000000000102030463
:103B30000006101600061016583B00080000002072
:103B40001000000028020008683B00081000002058
:103B5000E81C0000480200080100000010000000FE
:083B60000024F4000000000045
:04000005080001C529
:00000001FF
